:020000040800F2
:10000000D061002009030008533C0008213000089B
:10001000513C000889060008F14400080000000077
:10002000000000000000000000000000490200087D
:10003000590B000800000000A50200089D3D0008C3
:1000400023030008230300082303000823030008F8
:1000500023030008230300082303000823030008E8
:100060002303000823030008790B0008230300087A
:100070009D0A000823030008A90A000823030008BA
:10008000230300082303000823030008BD0700081A
:10009000B107000823030008230300087F0B0008B2
:1000A00023030008613E000823030008230300081F
:1000B00023030008230300086D3E00082303000803
:1000C0002303000823030008230300082303000878
:1000D0002303000823030008D9440008E54400086E
:1000E0005B0B000823030008230300082303000818
:1000F0002303000823030008230300082303000848
:100100002303000823030008230300082303000837
:100110002303000823030008230300082303000827
:100120002303000823030008230300082303000817
:1001300023030008230300082303000885080008A0
:10014000790800082303000823030008230300089C
:1001500023030008230300082303000823030008E7
:1001600023030008230300082303000823030008D7
:1001700023030008230300082303000800000000F5
:10018000230300082303000800F002F800F04CF8F5
:100190000AA090E8000C82448344AAF10107DA45E2
:1001A00001D100F041F8AFF2090EBAE80F0013F0E8
:1001B000010F18BFFB1A43F0010318479CA1000070
:1001C000BCA100000A4410F8014B14F00F0508BF51
:1001D00010F8015B240908BF10F8014B6D1E05D013
:1001E00010F8013B6D1E01F8013BF9D1641E03D0EC
:1001F000641E01F8015BFBD19142E4D3704700001B
:100200000023002400250026103A28BF78C1FBD81F
:10021000520728BF30C148BF0B6070471FB509F0B7
:10022000A1FE1FBD10B510BD00F0E4F91146FFF7A7
:10023000F5FF07F063F800F002FA03B4FFF7F2FFEE
:1002400003BC00F005FA00002C4B19680868B0E800
:10025000F04F80F30988BFF36F8F4FF0000080F3F9
:10026000118870470000000008480068006880F3AB
:1002700008884FF0000080F3148862B661B6BFF3BF
:100280004F8FBFF36F8F00DF00BF00BF08ED00E0AE
:10029000DFF80C00016841F470010160704700BF95
:1002A00088ED00E0EFF30980BFF36F8F134B1A68FE
:1002B0001EF0100F08BF20ED108A20E9F04F1060EB
:1002C00009B44FF0500080F31188BFF34F8FBFF394
:1002D0006F8F08F031FB4FF0000080F3118809BCEC
:1002E00019680868B0E8F04F1EF0100F08BFB0ECB6
:1002F000108A80F30988BFF36F8F704718010020C0
:10030000EFF305807047000009488047094800471F
:10031000FEE7FEE7FEE7FEE7FEE7FEE7FEE7FEE7B5
:10032000FEE7FEE704480549054A064B7047000012
:10033000513E000889010008D05B0020D0610020F8
:10034000D05D0020D05D002053EA020C00F06980EF
:100350002DE9F04B4FF00006002B1FBFB3FA83F5D9
:1003600003FA05F424FA05F65E4012BF1643B2FA0A
:1003700082F502FA05F4C5F120051EBF22FA05FC3C
:1003800044EA0C04203556EA044C4FEA144418BFE2
:10039000641C4FF000084FF00009904271EB030C11
:1003A00039D3002919BFB1FA81F701FA07F6B0FA7B
:1003B00080F700FA07F6C7F120071EBF20FA07FCF6
:1003C00046EA0C062037B6FBF4FCA7EB0507103F06
:1003D00007F01F0BCBF120060CFA0BFB2CFA06F6EC
:1003E00044BFB3460026202FA4BF5E464FF0000B4B
:1003F0005BEA060C08BF4FF0010B19EB0B09ABFBD6
:10040000027C48EB0608C01B06FB02CC0BFB03CCAE
:1004100071EB0C01C1E70B46024641464846BDE878
:10042000F08B13B54FF000004FF00001AFF30080E8
:10043000BDE81C407047032A40F2308010F0030CE6
:1004400000F0158011F8013BBCF1020F624498BF27
:1004500011F801CB00F8013B38BF11F8013BA2F1C4
:10046000040298BF00F801CB38BF00F8013B11F03F
:10047000030300F06280083AC0F0088051F8043BA2
:10048000083A51F804CBA0E80810F5E7121D5CBF4C
:1004900051F8043B40F8043BAFF30080D20724BF7F
:1004A00011F8013B11F801CB48BF11F8012B24BF13
:1004B00000F8013B00F801CB48BF00F8012B704762
:1004C00002F0FF0343EA032242EA024200F069B865
:1004D0004FF0000200B5134694469646203922BFDD
:1004E000A0E80C50A0E80C50B1F12001BFF4F7AF28
:1004F000090728BFA0E80C5048BF0CC05DF804EB0A
:10050000890028BF40F8042B08BF704748BF20F877
:10051000022B11F0804F18BF00F8012B7047704775
:100520007047704710B500F05DF8006810BD10B559
:10053000044600F057F8046010BD10B5203AC0F032
:100540000B80B1E81850203AA0E81850B1E81850D4
:10055000A0E81850BFF4F5AF5FEA027C24BFB1E811
:100560001850A0E8185044BF18C918C0BDE8104082
:100570005FEA827C24BF51F8043B40F8043B08BF8B
:100580007047D20728BF31F8023B48BF11F8012B52
:1005900028BF20F8023B48BF00F8012B70474FF0FE
:1005A00000020429C0F0128010F0030C3FF492AF57
:1005B000CCF1040CBCF1020F18BF00F8012BA8BF4E
:1005C00020F8022BA1EB0C01FFF784BF5FEAC17C8E
:1005D00024BF00F8012B00F8012B48BF00F8012BC5
:1005E00070470000004870476C5B0020004870476F
:1005F0006C5B00207546FFF7F9FFAE4605006946C3
:10060000534620F00700854618B020B5FFF78AFE54
:10061000BDE820404FF000064FF000074FF0000803
:100620004FF0000B21F00701AC46ACE8C009ACE884
:10063000C009ACE8C009ACE8C0098D46704710B5E8
:100640000446AFF300802046BDE81040FFF7F5BD3B
:1006500001491820ABBEFEE72600020070470000EB
:10066000034880ED0A0B80ED061B80ED022B7047DE
:10067000A8000020034880ED0C0B80ED081B80EDE6
:10068000042B7047A8000020FEE700002DE9F04F82
:100690003B4C2078AA2871D1607CDD286ED10F21D7
:1006A000A01C00F04DF9374908706178814265D18E
:1006B000DFF8D4C0B4F90220DFF8D0A0ACF80020F5
:1006C000B4F90410DFF8C8E0AAF80010B4F9066025
:1006D000DFF8C0B0AEF80060B4F908702E48ABF88F
:1006E0000070B4F90A300380DFF8B090B4F90C5010
:1006F0002B48A9F800505FEA024800D50243ACF845
:1007000000205FEA014C00D50143AAF80010320432
:1007100000D50643AEF800603A0400D507431E49F1
:10072000ABF800701A0400D503430B802A0400D5EF
:1007300005431C48A9F800501B4902784FF00103FB
:10074000D607A67B4FF000054FEAC67601D01EB152
:1007500003E016B10B6000E00D609207A27B4FEA48
:10076000827203D4002A04DA4B6002E0002A00DB24
:100770004D600E49A27B0270E07B0870BDE8F08FEF
:1007800068030020660000202A0000202C000020C2
:100790002E000020300000206000002062000020B9
:1007A0000000FFFF64000020E01000206500002032
:1007B000014800F06EBB0000CC030020014800F0AF
:1007C00068BB0000CC0300202DE9F84FDFF89CC087
:1007D000DDE90C95DDE90A764FF40074CCF80040B1
:1007E00000244FF0080ACCF80840CCE9034ADFF8AF
:1007F00080C04FEA10288CF800808CF80100080AAD
:100800008CF802008CF80310100A8CF804008CF8A5
:100810000520180A8CF806008CF807306B466246F3
:100820001249144800F0CCF9104840F2FF11303062
:100830006B4684600160C0E9034A0D48390A1030F4
:10084000024601704770310A8170C6704FEA192163
:10085000017180F80590290A81710449C571303110
:10086000044800F0ADF9BDE8F88F0000D802002080
:1008700002000020CC030020014800F00ABB000069
:10088000F4030020014800F004BB0000F403002042
:100890002DE9F84FDFF89CC0DDE90C95DDE90A761B
:1008A0004FF40074CCF8004000244FF0080ACCF854
:1008B0000840CCE9034ADFF880C04FEA10288CF8E2
:1008C00000808CF80100080A8CF802008CF80310F4
:1008D000100A8CF804008CF80520180A8CF8060021
:1008E0008CF807306B4662461249144800F068F9EC
:1008F000104840F2FF1130306B4684600160C0E95F
:10090000034A0D48390A1030024601704770310A17
:100910008170C6704FEA1921017180F80590290A8B
:1009200081710449C5713031044800F049F9BDE8CE
:10093000F88F0000F00200200A000020F4030020DD
:10094000034610B50120002202E09C5C6040521C6E
:100950008A42FADB10BD00002DE9F04105462DED7D
:100960000A8B01260C46B0EE408AF0EE608A022720
:100970000878E0B160789FED25BB9FED26AB9FED39
:10098000279B4FF00308012814D0022853EC192BA1
:1009900051EC180B9FED23CB14D009F0EBF825D8C0
:1009A000667085ED00CBBDEC0A8BBDE8F08126704A
:1009B0004F70F8E753EC1A2B51EC180B08F0A0FF1E
:1009C00014D809E009F0D6F8EAD953EC1A2B51EC07
:1009D000180B08F095FF04D884F8018085ED00BB62
:1009E000E1E79FED120B85ED000BDCE753EC192BD3
:1009F00051EC180B08F084FFD5D253EC1A2B51ECB4
:100A0000180B09F0B7F8CED26770CCE700000000F1
:100A10000000F0BF000000000088B3C0000000002C
:100A20000088B340000000000000F03F000000001C
:100A30000000000070B506462DED028B0C460878CC
:100A4000B0EE418AF0EE618A012580B110486178EC
:100A500090ED002B012953EC122B51EC100B09D017
:100A600008F04EFF11D86570BDEC028B70BD25708B
:100A70004D70F9E709F07EF802D802206070F3E7C4
:100A80009FED040B86ED000BEEE786ED008BEBE7A8
:100A9000A80000200000000000000000014800F055
:100AA00009BD0000D8050020014800F003BD00008A
:100AB0003806002001681823CAB2103AB2FBF3F2DC
:100AC000054B6FF30901032A9B5CC36500D9091D1F
:100AD0008165084670470000CCA0000810B50146AB
:100AE00000208B698A6A4FF0C07453B1B3F5005F80
:100AF00015D072B1012A0CD0022A0AD0032A09D1DA
:100B000004E01AB1012A06D0022A03D1C96AC90138
:100B100000D5012010BDC96AA142FAD010BD002A3B
:100B2000F7D0012AF2D0022AF3D0032AF3D010BD65
:100B300030B50468256825F4802525600468636065
:100B40008368402B036803D099600068C26030BDA1
:100B50009A600068C16030BD704710B54FF4806086
:100B600000F076FE4FF4006000F072FEBDE8104029
:100B70004FF4805000F06CBE102000F069BE10B53C
:100B8000202000F065FE402000F062FEBDE810402D
:100B90004FF4807000F05CBE72B6FEE790F8202043
:100BA000012A07D0022A05D0416A41F4802141621E
:100BB00001207047006842690A4342610020704783
:100BC000F0B590F820500468A468012D05D0022DDE
:100BD00003D0416A41F4802157E014F0406F01D105
:100BE000E5004FD5C4F301640125A5401D608D6863
:100BF0004FF4C0739DB1CE6835434E6845EAC605D3
:100C0000066803EB0417F5514FF4C275076805EB4E
:100C100004150E697E51097D012905D009E00E8871
:100C2000CD6845EA4655EBE701684E5946F48076B3
:100C30004E511179D579567941EA056195792D049E
:100C400045EA062529434FF4C676056806EB0416E7
:100C5000A9511178D57841EA0561957852782D042B
:100C600045EA022211434FF4C475026805EB0415EE
:100C70005151006803EB0411425842F00102425006
:100C80000020F0BD416A41F4001141620120F0BD35
:100C900010B590F82020012A07D0022A05D0416A19
:100CA00041F480214162012010BD3B48D0F8002270
:100CB00042F00102C0F80022D0F8002222F47C5257
:100CC000C0F80022D0F800224B6A42EA0322C0F8A2
:100CD00000220A7D02F01F0301229A40D0F81C3244
:100CE0009343C0F81C32CB69B3B9D0F80C329343AC
:100CF000C0F80C328C894B6864F31F434C6900EBDD
:100D0000C404C4F840320C890B6864F31F434C6977
:100D100000EBC404C4F84432CB69012B16D1D0F8DF
:100D20000C321343C0F80C320C884B6864F31F4339
:100D30004C6900EBC404C4F840320C89CB6864F3FE
:100D40001F434C6900EBC404C4F844328B69002B88
:100D5000D0F804320ED01343C0F804320B69002BD4
:100D6000D0F8143208D01343C0F81432096A0129AC
:100D700004D008E09343EFE79343F5E7D0F81C1263
:100D80001143C0F81C12D0F8001221F00101C0F884
:100D90000012002010BD000000640040704770B5D4
:100DA00090F82040012C05D0022C03D0416A41F478
:100DB000802128E0046809B32469A40720D04FF4F7
:100DC000D874056804EB01142D5915F004059560DD
:100DD00005682D591AD0ED08556005682C5904F0A6
:100DE0000204D4604FF4DA74056804EB01142E5940
:100DF00006F00F06082E0CD308250DE0E468DCE7AA
:100E0000416A41F400114162012070BD6D0D156011
:100E1000E3E72D5905F00F05156105682D59C5F358
:100E20000725956105682C59240C54614FF4DC7238
:100E3000046802EB0112A4581C700468A458240A28
:100E40005C700468A458240C9C700468A258120EAC
:100E5000DA704FF4DE72046802EB0112A4581C71C0
:100E60000468A458240A5C710468A458240C9C717A
:100E70000468A258120EDA71006829B1016941F0C4
:100E800020010161002070BDC16841F02001C160F6
:100E9000F8E72DE9F05F0546006800244669D0F8C0
:100EA00004908768D0F80CB0D0F810A0D0F8188063
:100EB000F10748D0F90714D001218160B80703D5A4
:100EC000284600F096FA0CE0780702D54FF400644B
:100ED00007E0380702D54FF4805402E0284600F0BE
:100EE00087FAF80516D529684FF480708860B80530
:100EF00003D5284600F07FFA0CE0780502D544F4CB
:100F0000005407E0380502D544F4804402E0284646
:100F100000F070FAF80316D529684FF48030886025
:100F2000B80303D5284600F068FA0CE0780302D530
:100F300044F4004407E0380302D544F4803402E06E
:100F4000284600F059FA300707D55FEACB6004D590
:100F50002968102044F40074C86070074FF0080737
:100F600007D55FEA0B7004D52868C760284600F0F3
:100F7000A9F9B00706D52868C068800702D02846BE
:100F800000F0A2F9700607D55FEACA6004D52968A7
:100F9000102044F480640861B00607D55FEA0A7047
:100FA00004D528680761284600F0F2F9F00606D556
:100FB00028680069800702D0284600F0EAF9B003EB
:100FC00008D55FEAC96005D5296810204860284621
:100FD00000F0E0F9F00307D55FEA097004D528684E
:100FE0004760284600F00AFA300446D55FEA4970A7
:100FF00040D5F00504D55FEAC87001D044F0010483
:10100000B00504D55FEA887001D544F0020470058C
:1010100004D55FEA487001D544F00404300529D5B1
:1010200018F0700F26D008F07000402815D006DCAC
:10103000102809D020280AD0302816D10AE05028DC
:101040000ED0602811D10EE044F008040DE044F009
:1010500010040AE044F0200407E044F0400404E0F7
:1010600044F0800401E044F480742868816921F030
:1010700070018161296804204860002C05D0686AED
:10108000204368622846FFF789FEBDE8F09F70B5EF
:10109000040003D094F8200010B104E0012070BDDA
:1010A000204600F081F82068016841F001010160EC
:1010B00000F0D2FC0546052604E000F0CDFC401B04
:1010C0000A2811D820684068C007F6D02068016857
:1010D00021F00201016000F0BFFC05460BE000F0CA
:1010E000BBFC401B0A2806D9606A40F400306062ED
:1010F00084F82060D2E7206840688007EFD4207E23
:101100000128206801683DD021F080010160607EE7
:1011100001282068016838D021F040010160A07EDC
:1011200001282068016833D021F020010160E07EB1
:101130000128206801682ED041F010010160207F55
:1011400001282068016829D021F008010160607F32
:1011500001282068016824D021F004010160D4E94D
:1011600002010843D4E90412114308436168491E8F
:1011700008432168C86100206062012084F82000D3
:10118000002070BD41F08001C0E741F04001C5E79B
:1011900041F02001CAE721F01001CFE741F008013A
:1011A000D4E741F00401D9E7F0B587B00446142133
:1011B0006846FFF78DF93E4B3E48DFF8F0E01968CE
:1011C000D4F800C03B4A032502260927103000242A
:1011D000491CF4452AD11960012907D1016841F061
:1011E00000710160006800F000700590106840F028
:1011F000080010601068CDE9005600F00800CDE945
:10120000047069462C48CDE9024500F02DFB002210
:101210000721132000F0F2FC132000F0E1FC002273
:101220000721142000F0EAFC14203AE0DFF88CE0FB
:10123000F44538D1D0F800C04CF0806CC0F800C044
:10124000D0F800C001290CF0806CCDF814C01960F2
:1012500007D1016841F000710160006800F0007082
:101260000590106840F002001060106802AB00F0BA
:10127000020005906020CDE9000683E8B0006946D1
:101280000F4800F0F1FA002205213F2000F0B6FCE3
:101290003F2000F0A5FC00220521402000F0AEFC1C
:1012A000402000F09DFC07B0F0BD0000006400404D
:1012B0008800002030380240000C024000680040E6
:1012C000000402407047000030B505462C482D4C04
:1012D0008BB0854226D101AB03AA00212846FFF737
:1012E0005EFD0398A0F20120072817D8C0B2264956
:1012F000207001EB001001880181BDF8041049BA8B
:101300000180BDF8061049BA4180BDF8081049BAFD
:1013100081809DF80A10817105F0DCF902211848DE
:10132000FFF73CFC1948854227D102AB04AA0021F3
:101330002846FFF734FD0498A0F20120072818D8AA
:101340001149C0B26070803101EB00100188018149
:10135000BDF8081049BA0180BDF80A1049BA4180A9
:10136000BDF80C1049BA81809DF80E10817105F00E
:10137000B1F902210548FFF711FC0BB030BD0000A8
:10138000CC0300200000002098010020F40300207E
:10139000704770477047000070B5044690F8200011
:1013A000012804D0606A40F40020606218E0022046
:1013B00084F820002068016821F00101016000F03C
:1013C0004BFB05460EE000BF00F046FB401B0A2821
:1013D00008D9606A40F400306062052084F820007B
:1013E000012070BD20684068C007EDD1606270BD0B
:1013F00070477047704770477047704770472DE9D6
:10140000F0410446876D00F027FB064694F835004E
:101410000025022806D08020606584F83450012021
:10142000BDE8F0812068016821F0160101602068A4
:10143000416921F080014161206C08B9A06C20B1A4
:101440002068016821F0080101602068016821F02E
:10145000010101600CE000F0FFFA801B052807D9AC
:1014600020206065032084F8350084F83450D7E7E5
:1014700020680068C007EED194F85C103F208840D7
:10148000B860012084F8350084F834500020C7E7A4
:1014900090F83510022903D0802141650120704762
:1014A000052180F835100068016821F00101016014
:1014B000002070472DE9F84304464FF00009CDF8AD
:1014C000009063484FF41651A56D0068B0FBF1F72A
:1014D0002E6894F85C10082000FA01F131420FD018
:1014E00021680A6852070BD50A6822F004020A60D4
:1014F00094F85C108840A860606D40F00100606561
:1015000094F85C104FF0010808FA01F0304208D05E
:1015100021684969090604D5A860606D40F00200A1
:10152000606594F85C1004208840304208D021683F
:101530000968890704D5A860606D40F00400606503
:1015400094F85C1010208840304218D02168096857
:10155000090714D5A86020680168490304D500680C
:10156000000308D5A16C07E00168C90503D4016830
:1015700021F008010160216C09B12046884794F8E8
:101580005C1020208840304231D021680968C906AB
:101590002DD5A86094F8350005282068016806D08C
:1015A000490347D5006800031DD4616C1CE021F09D
:1015B000160101602068416921F080014161206CC1
:1015C00008B9A06C20B12068016821F00801016011
:1015D00094F85C103F208840A86084F8358084F837
:1015E0003490216D1FE0E16B09B120468847606DA2
:1015F00000282BD0606DC00714D0052084F835007A
:101600002068016821F0010101600098401C0090F1
:10161000B84203D820680068C007F6D184F8358046
:1016200084F83490E16C002910D001B02046BDE868
:10163000F04308470168C905D5D4016821F01001BD
:10164000016084F8358084F83490CCE7BDE8F883F5
:10165000980000202DE9F041044600F0FDF906460F
:101660005CB1022084F83500002584F834502068ED
:10167000016821F0010101600DE00120BDE8F08169
:1016800000F0EAF9801B052805D9202060650320B9
:1016900084F83500F2E720680068C007F0D12268BE
:1016A000116820480140D4E901031843D4E9033606
:1016B0003343184363691843A3691843E369184324
:1016C000236A18430843616A042903D1D4E90B1340
:1016D00019430843106020684069666A20F00701DA
:1016E00030460E43012704280CD1A06A0643E06A65
:1016F00040B12046FFF7F2F920B14020606584F840
:101700003570BAE7206846612046FFF7D3F994F8B0
:101710005C203F2191408160656584F83570002030
:10172000ACE700003F8010F02DE9F0410446866DE3
:1017300090F83400002501280DD0012084F83400F1
:1017400094F835700020012F07D084F8340002256A
:101750002846BDE8F0810220FBE7022784F83570B7
:1017600060652046FFF7E4F994F85C103F2088405C
:10177000B0602068016841F016010160206C20B162
:101780002068016841F0080101602068016841F0AB
:1017900001010160DCE7000070B5044600F05CF96F
:1017A0000546601C02D004480078044400F054F957
:1017B000401BA042FAD370BD8C00002070B52149B7
:1017C000214C012541F28836B0F5805F13D0B0F589
:1017D000806F19D0402820D0B0F5807F26D01B49DB
:1017E000B0F5006F2BD020282BD14D603046BDE8DE
:1017F000704005F0EDBB91ED060B51EC100B08F0BD
:1018000025F825612060F1E791ED160B51EC100BE6
:1018100008F01CF865616060E8E791ED260B51EC7B
:10182000100B08F013F8A561A060DFE791ED360B0F
:1018300051EC100B08F00AF8E561E060D6E70D60A6
:10184000D4E770BDE0060020AC03002008110020A2
:10185000044910B50A68024202D00860FFF7AEFFE3
:1018600010BD0000143C01402DE9F84FDFF8BCA189
:101870000022012503264FF00F090AF1040BAAF1FB
:10188000040E00BF0B6805FA02F42340A34270D196
:101890000F7907F00307012F01D0022F16D18768B7
:1018A0004FEA420806FA08FC27EA0C07D1F80CC0F8
:1018B0000CFA08FC4CEA070CC0F808C04768A743BC
:1018C0000C79C4F3001494403C4344600C79E44325
:1018D000A4070AD0C4684FEA420C06FA0CF7BC43CE
:1018E0008F6807FA0CF72743C7600C7904F00304EC
:1018F000022C12D1D40800EB840CDCF820405707EE
:10190000FF0E09FA07F824EA0804D1F8108008FA53
:1019100007F848EA0408CCF8208004684FEA420C33
:1019200006FA0CF7BC430F7907F0030707FA0CF728
:10193000274307604C6814F4403F70D03C4C276844
:1019400047F480472760246822F0030704F48044AA
:101950000094384C07EB040CDCF8084897074FEA72
:10196000177809FA08F7BC43334FB84202D1002771
:1019700024E054E0314FB84201D101271EE0304F3E
:10198000B84201D1022719E02E4FB84201D10327F6
:1019900014E02D4FB84201D104270FE02B4FB8427D
:1019A00001D105270AE02A4FB84201D1062705E0F8
:1019B000284FB84201D1072700E0082707FA08F7A7
:1019C0002743CCF80878DAF800405746D1F804C02D
:1019D0009C435FEACC2C00D51C433C60DBF8004004
:1019E0005F46D1F804C09C435FEA8C2C00D51C43B1
:1019F0003C60DEF800407746D1F804C09C435FEAC3
:101A00008C3C00D51C433C60084F083F3C68D1F833
:101A100004C09C435FEACC3C00D51C433C60521C94
:101A2000102AFFF42FAFBDE8F88F0000083C0140FA
:101A300044380240003001400000024000040240EF
:101A400000080240000C0240001002400014024056
:101A500000180240001C02400148806870470000E6
:101A60008C00002070B5040011D021684CF6CC40E9
:101A70000860216845F255500860D4E900014160D2
:101A80002168A0688860FFF7E7FF05460DE00120A8
:101A900070BD00BFFFF7E0FF401B312805D920686B
:101AA000C068800701D0032070BD2068C06880072F
:101AB000F0D121684AF6AA200860002070BD0068B5
:101AC0004AF6AA21016000207047000002488168A0
:101AD00002781144816070478C0000200B4810B5DB
:101AE000016841F400710160016841F480610160A6
:101AF000016841F480710160032000F09FF80F201D
:101B000000F006F800F050F8002010BD003C024044
:101B100030B505461F4887B00024016841F0040134
:101B20000160006806A900F00400009001A800F020
:101B300031F90498A8B100F053F940001649174A4A
:101B4000B0FBF1F11648491E026040F2E732C0E9ED
:101B50000324C0E90114846100F092FB040003D067
:101B600015E000F03DF9E9E70D4800F0D5FB040071
:101B70000DD11E2000F034F8102D07D20022294686
:101B80001E2000F03BF80748056000E0012407B084
:101B9000204630BD4038024040420F00000800405F
:101BA00098060020900000200C4882B0016841F4A3
:101BB00080410160006800F4804000900748001FE9
:101BC000016841F0805101600068002200F08050FF
:101BD00000900F21901E02B000F010B8443802406F
:101BE000002809DB00F01F0201219140400980001C
:101BF00000F1E020C0F8001170470000F0B40E4B77
:101C00001B680C46C3F30223C3F10705042D00D95A
:101C10000425191D072901D2002300E0DB1E01263F
:101C200006FA05F1491E214099409E40761E164055
:101C30003143F0BC02F075BC0CED00E0064900F049
:101C4000070208684FF6FF03184040EA0220034AE3
:101C500010430860704700000CED00E00000FA053A
:101C60002DE9F0470E46050065D0DFF81481D8F85D
:101C70000000F7B200F00700B04207D288F8007009
:101C8000D8F8000000F00700B04254D128683D4C5D
:101C9000810712D5400703D5206840F4E05020604A
:101CA0002878000703D5206840F460402060206851
:101CB000A96820F0F000084320602878C0072DD0E4
:101CC000304968680839012812D0022813D0032847
:101CD00011D00968890700292DDA216821F0030154
:101CE00001432160FFF7B8FE814641F2883A0EE0D9
:101CF00009688903EFE709688901ECE7FFF7ACFEA3
:101D0000A0EB0901514502D90320BDE8F087206806
:101D1000696800F00C00B0EB810FEFD1D8F800102B
:101D2000404601F00701B14207D90770006800F092
:101D30000700B04201D00120E7E72878400705D529
:101D40002068E96820F4E050084320602878000704
:101D500006D52068296920F4604040EAC10020606F
:101D600000F05EF82168084AC1F30311515CC840D5
:101D70000649086006480068FFF7CAFE0020C4E76D
:101D8000003C024008380240D4A00008980000201F
:101D9000900000200F2202600C4A136803F0030336
:101DA0004360136803F0F0038360136803F4E053A7
:101DB000C36012684FF4E05303EAD20202610448A0
:101DC000006800F007000860704700000838024013
:101DD000003C024001480068704700009800002065
:101DE0000448054900680968044AC1F38221515C2E
:101DF000C84070479800002008380240E4A000085E
:101E00000448054900680968044AC1F34231515C3D
:101E1000C84070479800002008380240E4A000083D
:101E2000154810B5006810F00C02144813D041108A
:101E3000042A0FD0082A0ED10F4C241F22682368D1
:101E400002F03F025B0207D52068C0F38810A0FBB8
:101E5000010106E0084610BD2168C1F38811A1FB0D
:101E600000010023FEF770FA2168C1F30141491C0B
:101E70004900B0FBF1F010BD083802400024F40026
:101E80002DE9F84F04006ED02078DFF84C93C0079E
:101E9000A9F104054AD009F104000168C1F38101E8
:101EA000012908D00068C0F3810002280AD1D9F8BE
:101EB0000000400206D52868800337D560680028F6
:101EC000E1D033E06068B0F5803F10D0B0F5A02FCE
:101ED000286810D020F480302860286820F4802002
:101EE00028606068A8B1FFF7B7FD06460DE02868D6
:101EF00040F48030F4E740F480202860F7E700BF2A
:101F0000FFF7AAFD801B642873D828688003F7D5E3
:101F10000CE0FFF7A1FD064605E000BFFFF79CFDC2
:101F2000801B6428F0D828688003F7D42078DFF875
:101F3000AC8280074FF0000A3ED5A748001D01681B
:101F400011F00C0F08D00068C0F3810002280BD1FB
:101F5000D9F80000400207D42868800716D5E06849
:101F6000012800D112E033E1E068B8B10120C8F8DF
:101F70000000FFF771FD064605E000BFFFF76CFDAE
:101F8000801B0228C0D828688007F7D528682169F7
:101F900020F0F80040EAC10028600DE0C8F800A079
:101FA000FFF75AFD064604E0FFF756FD801B0228A6
:101FB0001FD828688007F7D42078000722D5864FDD
:101FC00087486169703771B101210160FFF744FDF5
:101FD000064604E0FFF740FD801B022809D8386858
:101FE0008007F7D50EE0C0F800A0FFF735FD0646E4
:101FF00005E082E0FFF730FD801B02287DD83868BD
:102000008007F7D42078400768D5DFF8CCB10027E7
:102010000BF13C0BDBF80000C0000BD4DBF8001028
:1020200041F08051CBF80010DBF80000012700F0F0
:10203000805000906B4E3068C00510D4306840F47A
:1020400080703060FFF708FD009005E0FFF704FDA9
:102050000099401A022850D83068C005F6D55E4E67
:10206000A0686C3601280FD00528306810D020F009
:1020700001003060306820F004003060A068B8B122
:10208000FFF7EAFC00900FE0306840F00100F4E751
:1020900040F004003060F7E7FFF7DEFC0099411ADA
:1020A00041F28830814266D830688007F4D50EE06E
:1020B000FFF7D2FC009007E0FFF7CEFC0099411A31
:1020C00041F28830814256D830688007F4D42FB16D
:1020D000DBF8001021F08051CBF80010A069C8B3E4
:1020E0003D49091D0968C1F3810102294AD002282E
:1020F000504607D0C8F8600000E03CE0FFF7ACFCB9
:1021000004463BE04746C8F86000FFF7A5FC0646DA
:1021100005E000BFFFF7A0FC801B02282BD8286831
:102120008001F7D4D4E907010843A16A2E4A49087F
:1021300002EB0141626A41EA8211084394F82C10D3
:1021400040EA0161C9F8001001203866FFF784FCFD
:10215000044606E03EE000BFFFF77EFC001B0228BD
:1021600009D828688001F7D534E000BFFFF774FC78
:10217000001B022802D90320BDE8F88F28688001DF
:10218000F4D427E00128F7D0D9F80000E26900F480
:10219000800191421CD1226A00F03F01914217D187
:1021A00047F6C071626A0140B1EB821F10D1A26A8A
:1021B0004FF0FF3300F4403103EB5202B1EB024F1A
:1021C00006D194F82C1000F07060B0EB016F01D0D4
:1021D0000120D1E70020CFE7043802400000474249
:1021E000800E4742007000400000FFFF70477047BC
:1021F00070B590F83C20012A32D0012480F83C4090
:10220000022280F83D2003685A689D6822F070061B
:102210000A6832435A60134B02689A4214D0B2F1F2
:10222000804F11D0104B9A420ED0104B9A420BD0D7
:102230000F4B9A4208D00F4B9A4205D00E4B9A4250
:1022400002D00E4B9A4204D1496825F0800319430D
:10225000916080F83D40002180F83C10084670BD38
:10226000022070BD00000140000400400008004052
:10227000000C0040000401400040014000180040F4
:1022800010B5040003D094F83D0010B107E0012020
:1022900010BD002084F83C00204600F01FF802200A
:1022A00084F83D00211D206801F0E6FD012084F83E
:1022B000460084F83E0084F83F0084F8400084F82B
:1022C000410084F8420084F8430084F8440084F814
:1022D000450084F83D00002010BD000008B50068EE
:1022E0000B49884212D10B48016841F4003101606A
:1022F0000068002200F40030009006211920FFF74A
:102300007DFCBDE808401920FFF76ABC08BD00004D
:10231000004401404438024090F83D10012901D0AA
:1023200001207047022180F83D100168CA6842F020
:102330000102CA6000681149884214D0B0F1804F90
:1023400011D00F4988420ED00E4988420BD00E4959
:10235000884208D00D49884205D00D49884202D0F4
:102360000C49884204D1816801F00701062903D095
:10237000016841F001010160002070470000014048
:102380000004004000080040000C00400004014030
:10239000004001400018004070472DE9F04104461C
:1023A0000068C66805694FF00007A90713D5B10793
:1023B00011D5F91E0161012020772068806980070E
:1023C000204602D0FFF7E8FF04E000F0D3F82046F3
:1023D00000F090F92777680716D5700714D52168A3
:1023E0006FF004000861022020772068806910F4F3
:1023F000407F204602D0FFF7CFFF04E000F0BAF89C
:10240000204600F077F92777280715D5300713D530
:1024100021686FF008000861042020772068C069F7
:102420008007204602D0FFF7B7FF04E000F0A2F8D3
:10243000204600F05FF92777E80616D5F00614D598
:1024400021686FF010000861082020772068C069BB
:1024500010F4407F204602D0FFF79EFF04E000F01A
:1024600089F8204600F046F92777E80708D0F007FA
:1024700006D021686FF001000861204600F0A0F945
:10248000280608D5300606D521686FF0800008615F
:102490002046FFF7ABFE680608D5700606D5216812
:1024A0006FF040000861204600F056FBA8060AD5F0
:1024B000B00608D521686FF0200008612046BDE80D
:1024C000F041FFF794BEBDE8F081000030B587B061
:1024D000044614216846FDF7FBFF246800222049CA
:1024E00002232048B4F1804F16D01F4DAC4224D1B6
:1024F000086840F00200086008680093CDE90132E6
:1025000000F00200CDE9043018486946039200BF8C
:10251000FFF7AAF907B030BD0C6844F001040C6065
:10252000096801F00101059103210091CDE9013213
:102530000121CDE903216946EAE70D4DAC42E9D11D
:102540000C6844F001040C60096801F00101059178
:1025500004210091CDE901326946CDE90323D7E793
:1025600030380240000002400004004000040240F5
:10257000000C0040704770B5044690F83C000026FF
:102580000D4601280FD0012084F83C006AB1042ACE
:102590001DD0082A2FD00C2A3FD00126002084F815
:1025A0003C00304670BD022070BD206801F0DEFCAA
:1025B0002068816941F0080181612068816921F00A
:1025C00004018161206881692A69114311E0206852
:1025D00001F0FCFC2068816941F4006181612068A0
:1025E000816921F480618161206881692A6941EAF9
:1025F00002218161D2E7206801F01EFD2068C169D7
:1026000041F00801C1612068C16921F00401C16184
:102610002068C1692A69114311E0206801F040FD7A
:102620002068C16941F40061C1612068C16921F479
:102630008061C1612068C1692A6941EA0221C161E2
:10264000ACE710B5040003D094F83D0010B107E0EA
:10265000012010BD002084F83C00204600F01EF848
:10266000022084F83D00211D206801F005FC0120B6
:1026700084F8460084F83E0084F83F0084F8400067
:1026800084F8410084F8420084F8430084F8440050
:1026900084F8450084F83D00002010BD08B50168AD
:1026A0001148B1F1804F0BD0104A914210D101680E
:1026B00041F002010160006800F00200009008BDD6
:1026C000016841F001010160006800F00100F5E7D8
:1026D000074A9142F3D1016841F0080101600068A6
:1026E00000F00800EAE70000403802400004004023
:1026F000000C00407047000010B50446022249B1AA
:1027000004290ED0082913D094F84100012816D0CE
:10271000012010BD94F83E000128F9D184F83E2034
:102720000FE094F83F000128F2D184F83F2008E040
:1027300094F840000128EBD184F8402001E084F8AF
:1027400041200122206801F003FC16492068164A46
:10275000884201D0904203D1436C43F40043436468
:102760002068884213D0B0F1804F10D00F498842C2
:102770000DD00F4988420AD00E49884207D09042B6
:1027800005D00D49884202D00C49884204D18168A5
:1027900001F00701062903D0016841F00101016041
:1027A000002010BD00000140000401400004004072
:1027B00000080040000C00400040014000180040AC
:1027C0002DE9F04FC64982462DED088B8DB0884229
:1027D0007ED1C44FC44C4FF001089FEDC48B3869C3
:1027E0000025012875D1DFF810B33968DFF80493AC
:1027F000DBF8106001290FD1B86868B984EDB68B99
:10280000F1683088C1EB4131084407F04EF8C9E95E
:102810000001C7F808803D607868012820D1F86879
:10282000F0B984EDB68B7D60F1683088C1EB413141
:10283000084407F03AF841EC100BB04880ED000B6B
:10284000B86958B99FEDAE1B51EC100B53EC112B2E
:1028500007F09EFAC9E90001C7F81880C7F80C8094
:10286000F1683088C1EB4131084407F01EF841ECB3
:10287000100BA24890ED001B51EC100B53EC112BE8
:1028800007F078F911D294EDB60B53EC182B51ECFC
:10289000100B07F06FF908D2F868012805D1B0EEE7
:1028A000480AF0EE680A84EDB60BDBF810000188E8
:1028B000C068C0EB4030084406F0F7FF99ED001BFC
:1028C00053EC112B07F01CF814D294EDB60B01E079
:1028D000F4E00FE053EC182B51EC100B07F010F85C
:1028E00008D2B868012805D1B0EE480AF0EE680AAF
:1028F00084EDB60B844E0927B6F9060090FBF7F07D
:1029000006F0D3FFC6E90A01B6F9080090FBF7F01C
:1029100006F0CBFFC6E90C01B6F90200404290FB7D
:10292000F7F006F0C2FFC6E908017069401C70614B
:10293000D6E9031209B9521C3261B2F5967F0CDD5B
:1029400086ED0A8B86ED0C8B86ED088BF580358144
:102950007580B58040F22D123261012900D13561B8
:10296000322801D1F56075616848FFF7A8F804F0D6
:1029700049FB0221CDF8288006910123CDF824805F
:102980000591CDF80880CDF820800491CDF82C80F9
:102990000791CDF80080CDF804801A46CDF80C8060
:1029A0001946184605F032FDB0690090584896ED7A
:1029B000082B96ED0C1B0FC896ED0A0B03F09EFE3C
:1029C000534D84ED4A8B103595ED000B9FED518BE7
:1029D00051EC100B53EC182B04F5A07406F0CCFF4F
:1029E0009FED4E9B53EC192B06F0C6FF9FED4DABB0
:1029F00053EC1A2B06F0C0FF9FED4CBB53EC1B2B86
:102A000006F090FDC4E9060195ED020B53EC182B7E
:102A100051EC100B06F0B0FF53EC192B06F0ACFF95
:102A200053EC1A2B06F0A8FF53EC1B2B06F07AFD93
:102A3000C4E9120195ED040B53EC182B51EC100B6B
:102A400006F09AFF53EC192B06F096FF53EC1A2B65
:102A500006F092FF53EC1B2B06F064FDC4E91E0147
:102A600095ED060B53EC182B51EC100B06F084FF80
:102A700053EC192B06F080FF53EC1A2B06F07CFF69
:102A800053EC1B2B06F04EFD9FED2A0BC4E92A01E7
:102A900084ED360B9FED290B84ED420B9FED290B46
:102AA00084ED4E0B9FED290B84ED5A0B03F038FBA0
:102AB00004F0E6FD04F0E6FC04F0FAFC2549DAF83F
:102AC0000000884206D10DB0BDEC088BBDE8F04F88
:102AD000FEF7FCBF0DB0BDEC088BBDE8F08F000029
:102AE0000005002008110020600C002000000000FC
:102AF00000000000800000209802002068000020F4
:102B00000000000040A20C41280000201C0400200E
:102B100038030020000000000000424000000000D8
:102B200000FFBF40000000000080474000000000A0
:102B300000E8B7400000000000408F4000000000A7
:102B400000409F40000000000070A740000000000F
:102B50000040AF40000800407047704710B5006863
:102B60000549884207D101220449054800F012FABC
:102B700004490020087010BD004800406803002090
:102B80009005002028000020F8B501680446086878
:102B9000CA684B6910F00F0F4FF0000559D003F0D1
:102BA000010602F49077374365D0C10705D0D105FF
:102BB00003D5616C41F001016164410705D5D90776
:102BC00003D0616C41F002016164810705D5D9072A
:102BD00003D0616C41F004016164010707D502F084
:102BE0002001314303D0616C41F008016164616CE4
:102BF00000293AD0800604D5900602D5204601F07F
:102C00003BFB20684069616CC0F38010090700D469
:102C100060B3204601F0FBFA20684069400621D5E8
:102C20002068143050E8001F21F0400140E80012F5
:102C3000002AF5D1E06BA8B16E490165E06BFEF7A3
:102C400027FC002811D0E06B016D01B0BDE8F04019
:102C5000084783060FD593060DD52046BDE8F840FA
:102C600001F00ABB2046FFF779FFF8BD2046FFF7C9
:102C700075FF6564F8BD266B2023012E7DD1C60645
:102C80007BD5D60679D508684868009048694FF02A
:102C90000206400641D5E16B086840680004000C5C
:102CA000E8D0A28D8242E5D9E085C869B0F5807F81
:102CB0002DD020680C3050E8001F21F4807140E8CE
:102CC0000012002AF5D12068143050E8001F21F0CE
:102CD000010140E80012002AF5D12068143050E8C4
:102CE000001F21F0400140E80012002AF5D184F8CD
:102CF0004230256320680C3050E8001F21F010019D
:102D000040E80012002AF5D1E06BFEF778FB66631D
:102D1000A08DE18D401A81B22AE0A08DE18D401A8C
:102D200081B2E08D0028A5D00029A3D022680C3202
:102D300052E8000F20F4907042E80007002FF5D110
:102D40002068143050E8002F22F0010240E80027EC
:102D5000002FF5D184F84230256320680C3050E80C
:102D6000002F22F0100240E80023002BF5D166630B
:102D70002046FFF7F2FEF8BDFFE705062BD5150646
:102D800029D594F841002128F5D1A068B0F5805FDD
:102D900001D12069B0B1206A411C2162216800780C
:102DA0004860E08C401E0004000CE084E3D1206801
:102DB000C16821F08001C1602068C16841F0400114
:102DC000C160D8E7206A0088C0F308004860206A24
:102DD000801C2062E5E74006CDD55006CBD5CA68F9
:102DE000204622F04002CA6084F8413000F017F912
:102DF000C1E700001141000870B5040004D094F848
:102E00004100002510B106E0012070BD84F840505B
:102E1000204600F023F8242084F841002068C1688F
:102E200021F40051C160204601F088FA2068016950
:102E300021F4904101612068416921F02A0141613A
:102E40002068C16841F40051C1606564202084F8A5
:102E5000410084F842006563002070BD2DE9F04117
:102E600086B0064614216846FDF732FB4349DFF879
:102E700008C137684148103902220323072500247E
:102E800067451FD1066846F400360660006800F406
:102E900000300590086840F008000860086869463E
:102EA00000F00800059060208DE81500CDE903359D
:102EB0003348FEF7D9FC002207212620FEF79EFEAC
:102EC000262053E0DFF8BCC0674551D1076847F4BE
:102ED00080270760006800F480200590086840F0B3
:102EE000020008600868694600F0020005904FF48F
:102EF00040608DE81500CDE903352348FEF7B4FCAA
:102F0000234D22484FF000672860C5E901744FF453
:102F10008068C5E903486C61AC61EC612C622846AD
:102F20006C62FEF797FB08B1FDF736FEF563AE6302
:102F3000174D164860353030E5E802074020A5E817
:102F40001101134845F814496030AC61EC612C6202
:102F50006C62FEF77FFB08B1FDF71EFEB563002231
:102F600005212720AE63FEF749FE2720FEF738FE35
:102F700006B0BDE8F0810000004400404038024047
:102F8000000C02400048004000040240286002405B
:102F9000D805002090F84230202B01D00220704745
:102FA00021B11AB10023036301F04EBA012070472A
:102FB00070B50068154988421DD1154D154C28780B
:102FC000AA2811D12078012658B9E660FDF75EFBEA
:102FD0001122691C1048FFF7DDFF26702878AA2807
:102FE00002D12078012807D0012209490A48FFF7B9
:102FF000D1FF0020207070BDE660FDF747FBBDE803
:103000007040122202490448FFF7C4BF0048004044
:1030100068030020280000209005002070477047BA
:10302000FEE7000070B50C462DED0A8B054653EC0B
:10303000112B51EC100B374E9FED37BB9FED38CB6A
:1030400006F0CEFD41EC190B96ED100B53EC192B4D
:1030500051EC100B06F090FC94ED001B53EC112B7F
:1030600006F096FE9FED301B53EC112B06F084FC0E
:1030700096ED180B41EC1A0B53EC192B51EC100B7D
:1030800006F07AFC94ED021B53EC112B06F08EF93E
:1030900053EC1A2B06F08AF941EC180B53EC1B2B5E
:1030A00006F068FD02D285ED00BB0BE053EC1C2B53
:1030B00051EC180B06F024FC02D285ED00CB01E0A8
:1030C00085ED008B9FED1A8B51EC1A0B53EC182BEE
:1030D00006F052FC94ED001B53EC112B06F066F940
:1030E000C4E9000196ED140B53EC192B51EC100BB5
:1030F00006F042FC53EC182B06F03EFC94ED021B4C
:1031000053EC112B06F052F9C4E90201BDEC0A8B15
:1031100070BD0000A8000020000000000000D040AA
:10312000000000000000D0C0000000000000594076
:10313000FCA9F1D24D62503FF7B514462DED0A0BB4
:103140000F4606462DED108B82B0B0EE44DAF0EE5D
:1031500064DAB0EE42EAF0EE62EAB0EE418AF0EEF6
:10316000618AB0EE40FAF0EE60FA9FED9ECB9FEDE3
:103170009FABA04D9FEDA00B51EC1D0B53EC102B02
:1031800006F0FAFB53EC1E2B06F010F953EC182B4B
:1031900006F026FD41EC180BB0EE480AF0EE680A86
:1031A00001F0A2FCB0EE409AF0EE609A95ED000BB3
:1031B00051EC190B53EC102B06F0A2FB03D8B0EE28
:1031C0004A8AF0EE6A8A95ED100B53EC182B51ECFD
:1031D000100B06F0D1FB94ED061B53EC112B06F0FF
:1031E000D7FD53EC1C2B06F0C7FB95ED000B41EC13
:1031F0001B0B53EC102B51EC190B06F0BBFC3AD215
:1032000095ED180B53EC182B51EC100B06F0B4FB9A
:1032100094ED041B53EC112B06F0C8F853EC1B2B58
:1032200006F0C4F841EC100B8DED000B9FED749B84
:1032300053EC192B06F09EFC0AD39FED739B9DED7A
:10324000000B53EC192B51EC100B06F059FB01D27B
:103250008DED009B95ED1A0B9DED001B51EC100BB5
:1032600053EC112B06F088FB53EC1F2B06F090FD5E
:1032700041EC190B03E0B0EE4A9AF0EE6A9A95ED34
:10328000040B53EC192B51EC100B06F075FB94ED6D
:10329000081B53EC112B06F07BFD53EC1C2B06F0A6
:1032A0006BFB95ED0C0B41EC1C0B53EC192B51EC0B
:1032B000100B06F061FB94ED0A1B53EC112B06F08A
:1032C00075F853EC1C2B06F071F841EC100B8DEDEA
:1032D000000B9FED4BFB53EC1F2B06F04BFC0AD36E
:1032E0009FED49FB9DED000B53EC1F2B51EC100B98
:1032F00006F006FB02D286ED00FB03E09DED000B1D
:1033000086ED000B9DED180B51EC1E0B53EC102BB2
:1033100006F03EFD41EC100BA11C881DFDF71CFBC7
:1033200094ED020B53EC1D2B51EC100B06F03EF804
:10333000C7E90001B0EE4A0AF0EE6A0A2146684683
:10334000B0EE401AF0EE601AFDF774FB95ED140B29
:1033500053EC182B51EC100B06F00EFB9FED2C8B51
:1033600053EC182B06F008FB94ED041B53EC112BC7
:1033700006F01CF8C4E9040153EC182B51EC1B0BAC
:1033800006F0FAFA94ED061B53EC112B06F00EF83A
:10339000C4E9060153EC182B51EC1C0B06F0ECFAB7
:1033A00094ED081B53EC112B06F000F8C4E908015A
:1033B00095ED080B53EC192B51EC100B06F0DCFAD1
:1033C00053EC182B06F0D8FA94ED0A1B53EC112B92
:1033D00005F0ECFFC4E90A0102B0BDEC108B0DB0A2
:1033E000F0BD000000000000000059400000000097
:1033F00000000000A80000200000000000FFBF4007
:10340000000000000000D040000000000000D0C01C
:10341000FCA9F1D24D62503FF7B514462DED0A0BD1
:103420000F4606462DED108B82B0B0EE44DAF0EE7A
:1034300064DAB0EE42EAF0EE62EAB0EE418AF0EE13
:10344000618AB0EE40FAF0EE60FA9FED9ECB9FED00
:103450009FABA04D9FEDA00B51EC1D0B53EC102B1F
:1034600006F08AFA53EC1E2B05F0A0FF53EC182B44
:1034700006F0B6FB41EC180BB0EE480AF0EE680A15
:1034800001F032FBB0EE409AF0EE609A95ED000B41
:1034900051EC190B53EC102B06F032FA03D8B0EEB6
:1034A0004A8AF0EE6A8A95ED0E0B53EC182B51EC1C
:1034B000100B06F061FA94ED061B53EC112B06F08D
:1034C00067FC53EC1C2B06F057FA95ED000B41EC12
:1034D0001B0B53EC102B51EC190B06F04BFB3AD2A3
:1034E00095ED160B53EC182B51EC100B06F044FA2B
:1034F00094ED041B53EC112B05F058FF53EC1B2BE0
:1035000005F054FF41EC100B8DED000B9FED749B0B
:1035100053EC192B06F02EFB0AD39FED739B9DED08
:10352000000B53EC192B51EC100B06F0E9F901D20A
:103530008DED009B95ED1A0B9DED001B51EC100BD2
:1035400053EC112B06F018FA53EC1F2B06F020FC5D
:1035500041EC190B03E0B0EE4A9AF0EE6A9A95ED51
:10356000020B53EC192B51EC100B06F005FA94EDFD
:10357000081B53EC112B06F00BFC53EC1C2B06F034
:10358000FBF995ED0A0B41EC1C0B53EC192B51EC9C
:10359000100B06F0F1F994ED0A1B53EC112B05F01A
:1035A00005FF53EC1C2B05F001FF41EC100B8DEDDA
:1035B000000B9FED4BFB53EC1F2B06F0DBFA0AD3FD
:1035C0009FED49FB9DED000B53EC1F2B51EC100BB5
:1035D00006F096F902D286ED00FB03E09DED000BAC
:1035E00086ED000B9DED180B51EC1E0B53EC102BD0
:1035F00006F0CEFB41EC100BA11C881DFDF7ACF9C9
:1036000094ED020B53EC1D2B51EC100B05F0CEFE8C
:10361000C7E90001B0EE4A0AF0EE6A0A21466846A0
:10362000B0EE401AF0EE601AFDF704FA95ED120BB9
:1036300053EC182B51EC100B06F09EF99FED2C8BE0
:1036400053EC182B06F098F994ED041B53EC112B56
:1036500005F0ACFEC4E9040153EC182B51EC1B0B34
:1036600006F08AF994ED061B53EC112B05F09EFE33
:10367000C4E9060153EC182B51EC1C0B06F07CF945
:1036800094ED081B53EC112B05F090FEC4E90801E2
:1036900095ED060B53EC192B51EC100B06F06CF961
:1036A00053EC182B06F068F994ED0A1B53EC112B20
:1036B00005F07CFEC4E90A0102B0BDEC108B0DB030
:1036C000F0BD0000000000000000594000000000B4
:1036D00000000000A80000200000000000FFBF4024
:1036E000000000000000D040000000000000D0C03A
:1036F000FCA9F1D24D62503F70B50C462DED0A8BFE
:10370000054653EC112B51EC100B374E9FED37BB98
:103710009FED38CB06F064FA41EC190B96ED0E0BD9
:1037200053EC192B51EC100B06F026F994ED001B0D
:1037300053EC112B06F02CFB9FED301B53EC112B9F
:1037400006F01AF996ED160B41EC1A0B53EC192BF7
:1037500051EC100B06F010F994ED021B53EC112BF9
:1037600005F024FE53EC1A2B05F020FE41EC180B5B
:1037700053EC1B2B06F0FEF902D285ED00BB0BE0EB
:1037800053EC1C2B51EC180B06F0BAF802D285ED65
:1037900000CB01E085ED008B9FED1A8B51EC1A0BED
:1037A00053EC182B06F0E8F894ED001B53EC112BAA
:1037B00005F0FCFDC4E9000196ED120B53EC192B4A
:1037C00051EC100B06F0D8F853EC182B06F0D4F897
:1037D00094ED021B53EC112B05F0E8FDC4E9020146
:1037E000BDEC0A8B70BD0000A800002000000000A6
:1037F0000000D040000000000000D0C00000000029
:1038000000005940FCA9F1D24D62503F0F4810B55D
:103810000D4901600321416000214FF400228160C5
:10382000C0E903124FF4401242610176417681767D
:10383000C17601774177FDF72AFC002803D0BDE867
:103840001040FDF7A9B910BD00640040CC03002072
:103850000F4810B50D4901600321416000214FF46C
:1038600000228160C0E903124FF4401242610176E8
:1038700041768176C17601774177FDF708FC002813
:1038800003D0BDE81040FDF787B910BD00680040C7
:10389000F40300200D4808B5016841F400110160EF
:1038A0000068002200F40010009005210C20FEF7B3
:1038B000A5F90C20FEF794F9002205210E20FEF751
:1038C0009DF9BDE808400E20FEF78AB93038024065
:1038D00010B50B4A00210B4803F04EFE0A4C084A73
:1038E000002120602432094803F046FE044A60604B
:1038F00048320021064803F03FFEA06010BD0000E2
:1039000060A00008313D000870000020F140000870
:10391000553C000870B586B014216846FCF7D8FD08
:103920003548016841F080010160016801F08001C3
:103930000591016841F001010160016801F0010198
:103940000591016841F002010160016801F0020186
:103950000591016841F008010160016801F008016A
:103960000591016841F04001016000684FF40415C1
:1039700000F0400005904FF44060CDE900050124BF
:10398000694602941D48FDF76FFF4FF4A870CDE91A
:1039900000051B4E694602943046FDF765FF202066
:1039A00000904FF48810CDE9010469463046FDF7D8
:1039B0005BFF2003CDE90005694602941148FDF73D
:1039C00053FF002209210A20FEF718F90A20FEF70A
:1039D00007F9002209211720FEF710F91720FEF73A
:1039E000FFF8002209212820FEF708F92820FEF719
:1039F000F7F806B070BD000030380240000C0240FD
:103A00000018024000000240094810B50749016053
:103A10000421416040F271218160FEF723F8002803
:103A200003D0BDE81040FDF7B7B810BD003000402E
:103A30001C0400200C4810B50A490160A721416010
:103A4000002140F2E732C0E9021201618021816168
:103A5000FEF716FC002803D0BDE81040FDF79CB827
:103A600010BD0000004401400005002010B58AB0E0
:103A7000002407941C2168460894FCF729FD1B4884
:103A80004FF08041016040F24731C0E9011440F23B
:103A9000CF71C0E903148461FEF7D3FD08B1FDF7CF
:103AA0007BF8079407A911480894FEF7A1FB08B119
:103AB000FDF772F86020009040F2E730CDE9010494
:103AC0000022694609480494FEF755FD08B1FDF748
:103AD00063F8042269460548FEF74DFD08B1FDF77D
:103AE0005BF80248FEF7F2FC0AB010BD2804002083
:103AF00010B58AB0002407941C2168460894FCF78E
:103B0000E7FC18481649016040F24731C0E901144A
:103B100040F2CF71C0E903148461FEF792FD08B151
:103B2000FDF73AF8079407A90E480894FEF760FBE2
:103B300008B1FDF731F86020009040F2E730CDE9A0
:103B400001040C22694607480494FEF714FD08B1ED
:103B5000FDF722F80348FEF7B9FC0AB010BD0000DB
:103B6000000400407004002010B58AB000240794BF
:103B70001C2168460894FCF7ABFC18481649016004
:103B800040F24731C0E9011440F2CF71C0E903149B
:103B90008461FEF756FD08B1FCF7FEFF079407A904
:103BA0000E480894FEF724FB08B1FCF7F5FF6020EF
:103BB000009040F2E730CDE9010408226946074849
:103BC0000494FEF7D8FC08B1FCF7E6FF0348FEF7C3
:103BD0007DFC0AB010BD0000000C0040B8040020BD
:103BE0000C4810B50A4901604FF4E13141600021F1
:103BF00081600C22C160C0E904128161C161FFF7DC
:103C0000FBF8002803D0BDE81040FCF7C5BF10BD8D
:103C100000440040480500200C4810B50A490160E6
:103C20004FF4E1314160002181600C22C160C0E9A4
:103C300004128161C161FFF7DFF8002803D0BDE8FD
:103C40001040FCF7A9BF10BD0048004090050020BF
:103C5000FEE7FEE71A4F1B4C2DED028B786801281A
:103C600029D11B4D9FED180B1A4E9FED1B8B84ED38
:103C7000B60B28690188C068C0EB4030084405F0E5
:103C800014FE96ED041B53EC112B06F081F841EC69
:103C9000100B00F029FF53EC182B51EC100B05F022
:103CA0002FFEE6D20E4803F093F904F041FC9FED9D
:103CB0000D0B84EDB60B012003F022FCCEE70000D3
:103CC000E0100020600C002000000000007097C091
:103CD00098020020700000200000000000FFBF409C
:103CE00020A107000000000000409F4010B50B4CD1
:103CF0009FED080B0A4884EDB60B03F069F90948FB
:103D000001219FED090B016184EDB60B002181605B
:103D1000C16010BD0000000000408FC0600C00209A
:103D200020A10700081100200000000000408F4083
:103D30002DED028B4FF47A7A134EDFF85080144F3A
:103D40009FED148BD8F80050002400BF06EB8400D0
:103D50000069012811D0012D0FD107EB8419B0EEB5
:103D6000481A99ED060BF0EE681A53EC112B51EC42
:103D7000100B05F01BFBC9E90601641C042CE5DBF4
:103D8000504603F025F9DDE7AC03002034000020A5
:103D9000E0060020333333333333D33F10B54FF0D5
:103DA000E020006905F040F9012803D0BDE810408B
:103DB00004F06EBE10BD000030B593B030216846EF
:103DC000FCF786FB14210CA8FCF782FB1E4800259B
:103DD000016841F080510160006800F0805011904E
:103DE0001A48016841F4804101600068022400F42F
:103DF00080401190092000904FF480300190012004
:103E0000CDE905048005079008AA0420A82182E8CE
:103E100013000B906846FEF733F808B172B6FEE760
:103E20000CA90F2081E831004FF4A0500F904FF4FF
:103E30008050109005210CA8FDF712FF002801D03A
:103E400072B6FEE713B030BD40380240007000404B
:103E50000248016841F470010160704788ED00E09C
:103E60000148FEF79ABA0000000500200148FEF75D
:103E700094BA000098060020F0B50268294C2A4D3B
:103E80002A4E2B4F2B4B4FF0804CA04209D060455F
:103E900007D0A84205D0B04203D0B84201D0984222
:103EA00004D122F0700E4A6842EA0E02A0421BD0F2
:103EB000604519D0A84217D0B04215D0B84213D0EF
:103EC000984211D01C4DA8420ED01C4DA8420BD0D8
:103ED0001B4DA84208D01B4DA84205D01A4DA84240
:103EE00002D01A4DA84203D122F44075CA682A4371
:103EF0004D6922F080022A4302608A68C2620A6821
:103F00008262A04201D0984201D109690163012176
:103F100041610169C90703D0016921F00101016113
:103F2000F0BD000000000140000400400008004017
:103F3000000C0040000401400040014000440140EA
:103F40000048014000180040001C004000200040D4
:103F500010B501F01F030121046A99408C430462EB
:103F6000016A9A401143016210BD0000F0B5036A76
:103F7000026A22F00102026242688469124E24F051
:103F800073050C682C4323F002058B682B430D4D01
:103F9000A84201D0B04205D123F00807CB683B43CB
:103FA00023F00403A84201D0B04205D14D6922F4A8
:103FB000407215438A692A434260846149684163BB
:103FC0000362F0BD0000014000040140F0B5026A48
:103FD000036A23F010030362436884690D6824F4C4
:103FE000E64444EA05248D6822F0200242EA0512E4
:103FF0000F4D104EA84201D0B04206D1CF6822F03A
:10400000800242EA071222F04002A84201D0B042E8
:1040100007D14D6923F4406343EA85038D6943EA80
:10402000850343608461496881630262F0BD0000DA
:104030000000014000040140F0B5026A036A23F465
:10404000807303624368C46922F4007224F073052C
:104050000C68124E2C438D6842EA05220E4DA84290
:1040600001D0B04206D1CF6822F4006242EA0722B2
:1040700022F48062A84201D0B04207D14D6923F4F6
:10408000405343EA05138D6943EA05134360C46155
:104090004968C1630262F0BD0000014000040140B4
:1040A00030B5046A026A22F4805202624268C3692F
:1040B0000D6823F4E64343EA05238D6824F4005495
:1040C00044EA0534084DA84202D0084DA84204D164
:1040D0004D6922F4804242EA85124260C361496818
:1040E0000164046230BD0000000001400004014092
:1040F000064D40F63E5428680128FCD1204604F0C5
:1041000075F903F0EBF903F0AFF9F4E7E0100020E4
:1041100010B5806B0021C185C184FEF71FFD10BD65
:1041200070B5846B2068406994F84110C0F3C010EA
:104130000025212904D118B1E584204600F08EF82D
:104140002068406994F84210C0F38010222904D1FD
:1041500018B1E585204600F05AF8606C40F0100078
:1041600060642046FEF7FAFC70BD10B50146806B16
:10417000096809684FF00002C9052ED4C28501689C
:104180000C3151E8003F23F4807341E80034002CE7
:10419000F5D10168143151E8003F23F0010341E8F3
:1041A0000034002CF5D10168143151E8003F23F0B0
:1041B000400341E80034002CF5D1202180F8421062
:1041C000016B012909D101680C3151E8003F23F04E
:1041D000100341E80034002CF5D14263016B012942
:1041E00002D0FEF7E5FE10BD818DFEF7B6FC10BDD6
:1041F00010B5806B01214163016B012902D0FEF7EC
:104200000DFF10BD818D4908FEF7A7FC10BD0168A8
:104210000C3151E8002F22F4907241E80023002B6A
:10422000F5D10168143151E8002F22F0010241E874
:104230000023002BF5D1016B012909D101680C3154
:1042400051E8002F22F0100241E80023002BF5D1A5
:10425000202180F8421000210163704701680C3171
:1042600051E8002F22F0C00241E80023002BF5D1D5
:10427000202180F84110704708B590F8421022299B
:1042800001D0022008BD82684FF480539A4201D1C8
:10429000016921B1816A9A421BD04AB10AE00268E1
:1042A000816A5268C2F308020A80816A891C08E0A8
:1042B000026972B10268526802F07F020A70816A74
:1042C000491C8162C18D491E0904090CC18503D0B6
:1042D0001BE002685268F1E70168CA6822F0200218
:1042E000CA600168CA6822F48072CA6001684A69BB
:1042F00022F001024A61202180F84210002141632E
:10430000026B012A03D0FEF753FE002008BD0163B3
:1043100001680C3151E8002F22F0100241E800231F
:10432000002BF5D101680A68D20602D50A684968EF
:104330000091818DFEF711FCE7E7000070B504469F
:1043400000680169E26821F440511143016121696B
:10435000A068E26908436169114308432168CA689B
:1043600049F20C639A430243CA6020684169A2691A
:1043700021F440711143416131492068884202D0E3
:104380003049884202D1FDF73BFD01E0FDF728FDF1
:10439000E2690023192164253226B2F5004F6268D4
:1043A00028D0A0FB0101930F9200FBF7CDFF01463F
:1043B000B0FBF5F06FF01802504301EB800006EB04
:1043C0000010B0FBF5F000F0F002B1FBF5F002EBED
:1043D0000012B1FBF5F06FF01803584301EB8000B9
:1043E00006EB0010B0FBF5F000F00F002168104460
:1043F000886070BDA0FB010192185B41FBF7A4FF30
:104400000146B0FBF5F00201B1FBF5F06FF01803C7
:10441000584301EB800006EBC000B0FBF5F000F064
:10442000F80002EB4002B1FBF5F0584301EB8000CD
:1044300006EBC000B0FBF5F000F00700D6E7000087
:10444000001001400014014038B5816204468285A5
:10445000002013466064222284F84220E56B1B4A48
:10446000EA63E56B1A4A2A64E56B1A4AEA64E26B6E
:1044700010650A462168E06B091DFDF755F92068B3
:10448000016840680090206948B120680C3050E80D
:10449000001F41F4807140E80012002AF5D1206825
:1044A000143050E8001F41F0010140E80012002ADA
:1044B000F5D12068143050E8001F41F0400140E879
:1044C0000012002AF5D1002038BD00006B41000821
:1044D000F1410008214100080148FEF755BB0000EA
:1044E000480500200148FEF74FBB00009005002062
:1044F000FEE703B401984100009850EAC12018BFBC
:1045000004204A0D18BF40F0010040F2FF72B2EBE8
:10451000515F08BF40F00200012808BF052002B02B
:1045200070470907090E002804DB00F1E02080F83D
:104530000014704700F00F0000F1E02080F8141D17
:10454000704700000000000070B59B482DED020B85
:104550002DED068B079D25F00044A04218DC9748FE
:10456000844202DC0AD1069840B19DED060BBDECF9
:10457000068B02B0BDE8704001F08EBD002DCCBFAF
:104580009FED8F0B9FED900BBDEC068B02B070BDC5
:104590008F48A04215DD8F48A042D8BF4FF0FF34AE
:1045A00058DD9DED060B51EC100BFFF7A2FF042820
:1045B00008BF01F0A5FD9DED060BBDEC068B02B01A
:1045C00070BD9DED060B51EC100B02F00FFDCDE917
:1045D000060181489FED828BA0423CDD8248A042CB
:1045E0001FDD00249FED82AB9DED060B53EC1A2BD3
:1045F00051EC100B04F0DAFE9DED060B41EC190BAB
:1046000053EC1A2B51EC100B05F0B6F953EC182BA8
:1046100005F0BEFB53EC192B04F084FFCDE9060135
:1046200049E09DED060B012453EC182B51EC100BC7
:1046300004F0BCFE9DED060B41EC190B53EC182B5E
:1046400051EC100B05F0A4FB53EC192B04F06AFF9E
:10465000CDE906012FE06848A0421FDD02249FED4E
:10466000689B9DED060B53EC192B51EC100B05F0DC
:1046700083F953EC182B04F099FE9DED060B41ECE9
:10468000180B53EC192B51EC100B05F081FB53EC7C
:10469000182B04F047FFCDE906010CE09DED060B59
:1046A000032453EC102B9FED580B51EC100B04F02E
:1046B00039FFCDE906019DED060B53EC102B51ECB3
:1046C000100B05F059F941EC180B53EC182B05F0C1
:1046D00053F941EC190B4E480621B0EE490AF0EEB1
:1046E000690A784401F0ACFB53EC182B51EC100B29
:1046F00005F042F941EC180B4648B0EE490AF0EEDD
:10470000690A0521784401F09BFB53EC192B51EC0D
:10471000100B05F031F941EC100B51EC180B53EC78
:10472000102B002C0EDA04F041FE9DED061B53EC1D
:10473000112B05F021F99DED061B53EC112B05F013
:104740004FFA35E004F032FE9DED061B53EC112BC1
:1047500005F012F941EC100B2F48784400EBC4002F
:1047600090ED001B51EC100B53EC112B05F010FBDE
:104770009DED061B53EC112B05F00AFB41EC100BD1
:104780002648784400EBC40090ED001B51EC100B60
:1047900053EC112B05F024FA41EC100B002DA2BFB5
:1047A000BDEC068B02B070BD51EC100B04F0F2FDB5
:1047B00041EC100B01E70000000010440000F07F06
:1047C000182D4454FB21F93F182D4454FB21F9BF07
:1047D0000000DC3F0000203E0000F33F000000002E
:1047E000000000000000F03F0000E63F0000000075
:1047F00000000000000000400080034000000000B6
:10480000000000000000F83F000000000000F0BFC2
:10481000725A0000285A0000B25900006A5900007C
:1048200070B56F4E2DED040B2DED048B82B0DDF8CD
:1048300024C0DDE907235C422CF000411C4341EA1F
:10484000D474069D22F00040B44205D86C422C433B
:1048500040EAD474B4420BD99DED081B9DED060BC4
:1048600002B0BDEC048B04B0BDE8704001F01EBC8A
:10487000ACF14054A4F17F641C430BD0022404EA41
:10488000AC7444EAD27405439FED578B9FED582BCF
:1048900007D015E09DED060B51EC100B01F0E0FD8B
:1048A00042E0002C11BF012C9DED060B02B0BDECC7
:1048B000048B04BF04B070BD022C38D0032C3BD055
:1048C0000B439FED4D1B9FED4E0B0AD0B14218D10B
:1048D000B04209D121F0804120F080400991079039
:1048E0000FE0002A15DA10E0474B7B44002C08BF8C
:1048F00093ED000B0DD0012C10D0022C17D0032CFF
:104900001AD0B0421DD1002A03DAB0EE410AF0EE0F
:10491000610A02B0BDEC048B04B070BD93ED000BD6
:1049200051EC100B04F036FD41EC100BF1E7B0EE4A
:10493000480AF0EE680AECE7B0EE420AF0EE620ACE
:10494000E7E7401A00159FED329B3C28C8BF8DED6C
:10495000000B17DCBCF1000FBCBF10F13C0F8DED5C
:10496000009B0FDB9DED080B53EC102B9DED060B10
:1049700051EC100B04F0D6FD02F038FB01F070FD95
:10498000CDE90001B4B1012C10D0022C9FED220B17
:1049900053EC102B9DED000B51EC100B19D005F0D2
:1049A000F7F953EC182B05F0F3F9BDE7019880F007
:1049B000004001909DED000B53EC192B51EC100BB6
:1049C00004F008FF04BF0220FBF7B1FD9DED000BD2
:1049D0009FE705F0DDF953EC182B05F001F9A3E78B
:1049E0000000F07F00000000182D4454FB21094016
:1049F000182D4454FB2109C0182D4454FB21F9BF44
:104A0000182D4454FB21F93F5259000000000000CA
:104A10000000000000000000075C143326A6A13C43
:104A200010B52F499FED2C1B2DED020B84B005987E
:104A300020F000408842D8BF9DED040B2DDD2949B0
:104A4000884209D1049840B94FF00100FBF76FFD8F
:104A500001F036FB06B010BD05DB9DED040B01F047
:104A60001BFB06B010BD68469DED040B00F014FF63
:104A700010F0030004BF9DED021B9DED000B0CD058
:104A800001280ED09DED021B9DED000B022817D0D2
:104A9000012001F051FA06B010BD01F019F906B07D
:104AA00010BD9DED021B9DED000B012001F044FAAD
:104AB00051EC100B04F06EFC06B041EC100B10BD75
:104AC00001F006F951EC100B04F064FC06B041EC67
:104AD000100B10BD000000000000000000000000EE
:104AE000FB21E93F0000F07F2DED020B019820F043
:104AF000004001909DED000B02B0704700000000E7
:104B00002DE9F04D2DED040B2DED0E8B96B0DDE96A
:104B10002550279CDDF890A025F0004624F00048A1
:104B2000BAF1000F14BF0121002101EB4502FC493D
:104B300053184A1093422AD3002814BF012300239C
:104B400003EB44030B44F7498B4220D358EA00019E
:104B50009FEDF59B76D0DFF8D8B35D4503D1BAF170
:104B6000000F05D188E0BAF1000F08BF002100D086
:104B7000012101EB450111F5001F08D8002814BFE1
:104B80000121002101EB440111F5001F0BD99DED1E
:104B9000261B9DED240B16B0BDEC0E8B04B0BDE8BA
:104BA000F04D01F083BA0027002DBCBFE1498845D4
:104BB00021DAE1498845A8BF02271CDAC3451ADC7F
:104BC000DE4901EB2851142908DDC1F1340220FA35
:104BD00002F101FA02F282420DD108E058B9C1F1A6
:104BE000140228FA02F101FA02F2424503D101F05F
:104BF0000101C1F1020756EA0A0124D1002C22DA90
:104C0000002D18BF022F01D0012F0AD00220FBF780
:104C10008EFC16B0BDEC0E8B04B0BDE8F04D01F07B
:104C200023BA0220FBF783FC01F01EFA51EC100BB3
:104C300004F0B0FB41EC100B16B0BDEC0E8B04B0D1
:104C4000BDE8F08D18E09FEDBEAB9FEDBF8B002857
:104C500071D1B848804522D105F1804010F580100F
:104C600008BFBAF1000F07D0B3450ADC002CA8BF7B
:104C70009DED260BE0DA0DE0B0EE490AF0EE690A90
:104C8000DAE7002C06DA9DED260B51EC100B04F050
:104C900081FB6FE0AE48784490ED000BCCE7D8453F
:104CA0004DD1002C48DA2EB186423AD1BAF1000F2C
:104CB00042D126E0BAF1000F13D00220FBF737FCF7
:104CC00001F00EFA8DED020B9DED240B8DED000B26
:104CD00010EE900A039961F31E0003909DED020B04
:104CE000AAE78DED02AB9DED240B1AEE901A10EEA3
:104CF000900A8DED000B61F31E0003909DED020BF9
:104D00009AE78DED028B9DED240B18EE901A10EEB4
:104D1000900A8DED000B61F31E0003909DED020BD8
:104D20008AE709DA9DED240B51EC190B53EC102B9B
:104D300004F0F8FB1EE020E09DED240B7CE78642AA
:104D40001BDAB4F1804F0DD0A4F10050B0F1FF5048
:104D500013D1002D11DB9DED240B51EC100B03F052
:104D6000AFFB07E09DED240B53EC102B51EC100B27
:104D700000F0C2BC41EC100B5EE79DED240B51EC42
:104D8000100B02F033F9BAF1000FCDE90E0142D158
:104D90009FED710B46B3A6F1E040B0F17F600CD0FF
:104DA0005E4538D1002D00DAA7B3022F0CBF0120D9
:104DB0004FF0FF3004F079FDDCE7002D01DD002C21
:104DC0000DDA002D01DD002C1FDB002D16DA002C82
:104DD00014DB012F08BF9FED620B3FF42DAFB0EE47
:104DE0004A0AF0EE6A0A27E7022F18BF002D0CD0FE
:104DF000012F0AD1002DFFF61FAF06E0002DB8BF2E
:104E0000002C08DA012F3FF417AFB0EE480AF0EE9D
:104E1000680A11E71BE0012000EBE57050EA07018A
:104E200015D0791EB0EE498AF0EE698A084308BFB2
:104E30009FED4D8B4E480025804570DD4D494E4815
:104E4000884514DDB0420DDB002C19DB2FE001207A
:104E5000FBF76DFB16B0BDEC0E8B04B0BDE8F04D5A
:104E600001F02EB9B34502DC002C09DC1FE08642BC
:104E700002DA002C1BDA03E05E452BDD002C16DD88
:104E80000220FBF754FB01F02BF98DED020B53ECE4
:104E90001A2B51EC180B04F06FFDCDE900010399BA
:104EA000019861F31E0003909DED020BC4E6022001
:104EB000FBF73DFB01F024F910EE901A18EE900A72
:104EC0008DED020B8DED008B61F31E0003909DEDC7
:104ED000020BB1E69DED0E0B53EC192B51EC100BB0
:104EE00004F056FF9FED260BCDE9080153EC102B83
:104EF0009DED080B51EC100B04F03EFD9FED221BC5
:104F000053EC112B04F06CFE9DED081B53EC112BA0
:104F100004F032FD9FED1E1B53EC112B3CE08CE0A6
:104F2000FFFF1F00FFFF0F00000000000000F03F28
:104F30000000F03F0000F07F0000404301FCFFFF55
:104F4000000000000000F07F0000000000000000F2
:104F5000A6550000000000000000000000000080D6
:104F6000000000000000F0FF000000000000F0BFA3
:104F70000000E0410000F043FFFFEF3F00000000B1
:104F8000000000000000D03F555555555555D53F00
:104F9000000000000000E03F04F022FE9DED080B41
:104FA00041EC1A0B53EC102B51EC100B04F0E4FC09
:104FB00053EC1A2B04F0E0FC41EC1A0B9FEDFE0BB6
:104FC00053EC102B9DED080B51EC100B04F0D4FCAE
:104FD00041EC1B0B9FEDFA0B51EC1A0B53EC102B11
:104FE00004F0CAFC41EC1A0B9FEDF70B53EC102BAD
:104FF0009DED080B51EC100B04F0BEFC53EC1A2B8A
:1050000004F0C6FE41EC1A0B51EC1B0B53EC1A2BAF
:1050100004F0CCF90690CDE906519DED060B53EC5A
:105020001B2B51EC100B04F0B3FE53EC1A2B04F0C5
:10503000D7FD41EC100B00F0A1B90020B6F5801FA0
:105040000EDA9FEDE30B53EC102B9DED0E0B51ECA4
:10505000100B04F091FCCDE90E016FF034000E4608
:1050600000EB2650A0F2FF37C6F31300DA4940F0F8
:105070007F6646F040568842D8BF002408DDD749F5
:105080008142C8BF012403DC0024A6F580167F1CE2
:10509000D348784400EBC4000F9690ED00CB9DED13
:1050A0000E0B53EC1C2B51EC100B04F071FE9DED1C
:1050B0000E0B41EC1B0B53EC1C2B51EC100B04F0B2
:1050C00075F941EC100B51EC190B53EC102B04F05B
:1050D00029FA41EC1D0B51EC1B0B53EC1D2B04F07A
:1050E0004BFC41EC1A0BBF488DED10AB784410958A
:1050F00090ED000B4FF0005040EA660000EB84405A
:105100008DED080B00F5002009909DED080B53EC88
:105110001C2B51EC100B04F03BFE9DED0E1B53ECD1
:10512000112B04F05DFD41EC100B53EC102B9DEDA9
:10513000100B51EC100B04F01FFC9DED080B41EC23
:105140001C0B53EC102B9DED100B51EC100B04F0CD
:1051500013FC53EC1B2B04F043FD53EC1C2B04F00D
:1051600017FE53EC1D2B04F007FC41EC1C0B53EC19
:105170001A2B51EC1A0B04F0FFFB41EC1B0B9A4865
:105180000621B0EE4B0AF0EE6B0A784400F058FEB0
:10519000B0EE401AF0EE601AB0EE41DAF0EE61DAED
:1051A00053EC1B2B51EC1B0B04F0E6FB53EC1D2BBB
:1051B00004F0E2FB9DED100B41EC1B0B53EC1A2BA2
:1051C00051EC100B04F0F2F853EC1C2B04F0D4FB60
:1051D00053EC1B2B04F0EAF89DED100B41EC1B0B7C
:1051E00053EC102B51EC100B04F0C6FB41EC1D0BE3
:1051F0009FED7FEB53EC1E2B04F0D8F853EC1B2BE8
:1052000004F0D4F80890CDE908519DED080B53EC5B
:105210001E2B51EC100B04F0BBFD53EC1D2B04F0C6
:10522000B7FD53EC1B2B04F0DBFC9DED080B41ECB0
:105230001D0B53EC102B9DED100B51EC100B04F0DB
:105240009BFB41EC1B0B53EC1A2B51EC1D0B04F098
:1052500093FB9DED080B41EC1A0B53EC102B51EC1A
:105260001C0B04F089FB53EC1A2B04F09FF841EC63
:105270001A0B51EC1B0B53EC1A2B04F097F80C9003
:10528000CDE90C519DED0C0B53EC1B2B51EC100B8D
:1052900004F07EFD53EC1A2B04F0A2FC41EC1B0B36
:1052A0009FED550B53EC102B9DED0C0B51EC100B9F
:1052B00004F062FB41EC1A0B9FED510B51EC1B0B00
:1052C00053EC102B04F058FB41EC1B0B9FED4E0BE5
:1052D00053EC102B9DED0C0B51EC100B04F04CFB20
:1052E00053EC1B2B04F062F841EC100B4848784457
:1052F00000EBC40090ED001B51EC100B53EC112B94
:1053000004F054F841EC1B0B384604F0CEFACDE91A
:10531000080153EC1B2B51EC1A0B04F047F841EC3D
:10532000100B3C48784400EBC40090ED00CB51ECEE
:10533000100B53EC1C2B04F039F89DED081B53ECBB
:10534000112B04F033F80690CDE906519DED080BC2
:1053500053EC102B9DED060B51EC100B04F018FDD7
:1053600053EC1C2B04F014FD53EC1A2B04F010FD2D
:1053700053EC1B2B04F034FC41EC100B9DED261B71
:1053800053EC102B8DED001B00959DED260B51EC81
:10539000100B04F0F1FA9DED000B41EC1A0B53ECED
:1053A000102B9DED260B51EC100B04F0F1FC9DED44
:1053B000061B53EC112B2FE0000000604715F73F50
:1053C000FE822B654715F73F44DF5DF80BAE543E78
:1053D00000000000000040438E9803007AB60B00E6
:1053E000F2500000505100002A5000000000000060
:1053F0000000000000000840000000E009C7EE3F88
:10540000FD033ADC09C7EE3FF5015B14E02F3EBE19
:10541000B64E0000704E000004F0AEFA53EC1A2BAA
:1054200003F0C4FF9DED060B41EC1A0B53EC102B5F
:105430009DED000B51EC100B04F09EFACDE90C0130
:105440009DED0C0B51EC1A0B53EC102B03F0AEFF3F
:10545000CDE902010C46AA498C422FDB611A0843B0
:1054600018D19DED0C0B53EC102B9DED020B51EC64
:10547000100B04F08DFC41EC1B0B9FEDA30B51ECCA
:105480001A0B53EC102B03F091FF53EC1B2B04F081
:1054900071FB2DD20220FBF74AF800F021FE10EE3E
:1054A000901A18EE900A8DED020B8DED008B61F3D2
:1054B0001E0003909DED020BFFF7BEBB944A24F043
:1054C0000041914214D39349214408437FF4EFAC47
:1054D0009DED0C0B53EC102B9DED020B51EC100BC2
:1054E00004F056FC53EC1A2B04F044FB7FF6DFACBF
:1054F00024F000408849894A002601EB205182426D
:105500002BDA481C4FF4801121FA00F02044844A21
:10551000C0F30A517A44A1F2FF3192ED000B814AA7
:105520008DED080BCA4020EA0202C0F3130040F4DC
:105530008010C1F1140120FA01F60992002CB8BFC5
:1055400076429DED080B53EC102B9DED0C0B51ECAE
:10555000100B04F01DFCCDE90C019DED0C0B51EC82
:105560001A0B53EC102B03F021FF9FED6F0B0890EB
:10557000CDE9085153EC102B9DED080B51EC100BAD
:1055800004F0FAF941EC1B0B9FED690B53EC102B67
:105590009DED080B51EC100B04F0EEF99DED0C0B9A
:1055A00041EC1C0B53EC102B9DED080B51EC100B38
:1055B00004F0EEFB53EC1A2B04F012FB9FED5E1B84
:1055C00053EC112B04F0D8F953EC1C2B03F0EEFE36
:1055D00041EC1A0B51EC1B0B53EC1A2B03F0E6FEBB
:1055E000CDE902019DED020B53EC1B2B51EC100B8E
:1055F00004F0CEFB53EC1A2B04F0F2FA9DED020BF3
:1056000041EC1A0B53EC102B51EC100B04F0B4F9D5
:10561000CDE908014A489DED080B0521784400F0CA
:105620000FFC9DED081B51EC100B53EC112B04F0FB
:10563000A3F99DED021B53EC112B04F0D1FACDE937
:1056400006019DED020B53EC1A2B51EC100B04F0EC
:1056500093F953EC1A2B03F0A9FE9FED3B0B41ECA1
:105660001A0B53EC102B9DED060B51EC100B04F0B4
:105670008FFB9DED060B41EC1B0B53EC102B9DEDAE
:10568000020B51EC100B04F077F953EC1B2B03F0D9
:1056900049FF53EC1A2B04F07BFB9DED021B53ECEE
:1056A000112B04F075FB53EC192B04F099FACDE99A
:1056B000020101EB065001150029C8BF039015DC5B
:1056C0009DED020B324651EC100B04F082FCFEF70C
:1056D00010FF042808BF00F013FD32469DED020BB9
:1056E00051EC100B04F075FCCDE902019DED020BAD
:1056F00051EC180B53EC102B04F03EF9FFF73ABBBA
:105700000000904000000000FE822B654715973C8A
:1057100000CC904000346F3F01FCFFFF0000E03FF1
:10572000284D0000FFFF0F0000000000432EE63F61
:10573000396CA80C615C20BEEF39FAFE422EE63FC0
:10574000C84B000000000000000000000000004006
:1057500010B52F499FED2C1B2DED020B84B0059841
:1057600020F000408842DCBF00209DED040B32DDBC
:105770002849884209D1049840B94FF00100FAF74E
:10578000D6FE00F09DFC06B010BD05DB9DED040BC0
:1057900000F082FC06B010BD68469DED040B00F0E1
:1057A0007BF810F0030011D0012818D09DED021BEA
:1057B0009DED000B02281AD000F08AFA51EC100B74
:1057C00003F0E8FD06B041EC100B10BD9DED021B8F
:1057D0009DED000B012000F0AFFB06B010BD9DED6C
:1057E000021B9DED000B00F073FA06B010BD012006
:1057F00000F0A2FB51EC100B03F0CCFD06B041EC25
:10580000100B10BD000000000000000000000000B0
:10581000FB21E93F0000F07F00B52DED048BB0EED9
:10582000409AF0EE609A83B051EC190B04F0E4F961
:1058300041EC180B18EE100A18EE901A8DED008B43
:10584000002818BF0120084320F00040C0F17F600D
:1058500000F1E040C00F14D019EE101A19EE900AB2
:105860008DED009B002918BF0121084320F0004066
:10587000C0F17F6000F1E040C00F04BF0120FAF7E3
:1058800056FEB0EE480A03B0F0EE680ABDEC048B99
:1058900000BD0000000000002DE9F14F04462DED91
:1058A000020B2DED088B8AB09FEDE70B80ED020B0C
:1058B000139EE74826F0004585420ADC9DED120B59
:1058C000002084ED000B0AB0BDEC088B03B0BDE8EE
:1058D000F08FE0489FEDE0AB9FEDE1BBA84247DDD4
:1058E000E14F9FEDE39B9FEDE48B9DED120B53EC9D
:1058F0001A2B51EC100B002E1CDD04F049FA41EC80
:10590000100BBD4208D053EC1B2B51EC100B04F0D4
:105910003FFAC4E900010BE053EC192B51EC100BDA
:1059200004F036FA53EC182B04F032FAC4E9000103
:105930000120C8E703F03AFD41EC100BBD4208D04E
:1059400053EC1B2B51EC100B03F030FDC4E90001AC
:105950000BE053EC192B51EC100B03F027FD53EC2B
:10596000182B03F023FDC4E900014FF0FF30AAE734
:10597000C348A84279DB9DED120B51EC100B01F0EE
:1059800035FB41EC180B9FEDC00B53EC102B03F0D3
:10599000F3FF9FEDBF1B53EC112B03F007FD03F04A
:1059A00055FF074603F081FF41EC190B53EC1A2B0E
:1059B00003F0E2FF53EC182B04F012F941EC180B42
:1059C00053EC1B2B51EC190B03F0D6FFDFF8C8A2E8
:1059D00041EC100B4FEA15580125FA4453EC102BFB
:1059E00051EC180B04F0D4F9032DC4E900013DD0AB
:1059F000C1F30A5005EB4511A8EB000011398142B3
:105A000034DA0AEB051BB0EE48AA9BED000BF0EE72
:105A100068AA53EC102B51EC190B03F0ADFF41ECCD
:105A20001B0B51EC1A0B53EC1B2B04F0B1F941EC9E
:105A3000180B51EC1A0B53EC182B04F0A9F953EC8A
:105A40001B2B04F0A5F99BED020B41EC1A0B53EC58
:105A5000102B51EC190B03F08FFF53EC1A2B04F0B1
:105A600097F941EC100B6D1CB8E70EE0002EA8BFB3
:105A70003846BFF628AF94ED000B51EC100B03F045
:105A800089FCC4E9000178421DE7C6F3130040F425
:105A9000801EC6F30A50A0F2F530471100F01F0532
:105AA000C5F12000DDF848B008900020069007906E
:105AB0000520EC467949002D07EB0002794408BF28
:105AC00051F8221009D051F8223001EB8201AB408D
:105AD0004A68089922FA01F11943A1FB0E26A1FB9D
