:020000040800F2
:100000009863002031030008DF38000889330008B6
:10001000DD380008830800082D6800080000000093
:100020000000000000000000000000007102000855
:10003000850D000800000000CD020008A160000846
:100040004B0300084B0300084B0300084B03000858
:100050004B0300084B0300084B0300084B03000848
:100060004B0300084B030008A50D00084B030008D4
:10007000990C00084B030008A50C00084B0300086E
:10008000B10C0008BD0C00084B030008790A0008F9
:100090006D0A00084B0300084B030008AB0D000875
:1000A0004B030008656100084B0300084B03000880
:1000B0004B0300084B030008716100084B03000864
:1000C0004B0300084B0300084B0300084B030008D8
:1000D0004B0300084B030008096800081568000876
:1000E000870D00084B0300084B0300084B03000872
:1000F0004B0300084B0300084B0300084B030008A8
:100100004B0300084B0300084B0300084B03000897
:100110004B0300084B0300084B0300084B03000887
:100120004B030008C90C00084B0300084B030008F0
:100130004B0300084B0300084B030008410B000869
:10014000350B00084B0300084B0300084B03000865
:100150004B030008D50C00084B0300082168000879
:100160004B0300084B0300084B0300084B03000837
:100170004B0300084B0300084B030008000000007D
:100180004B0300084B03000800F002F800F061F890
:100190000AA090E8000C82448344AAF10107DA45E2
:1001A00001D100F056F8AFF2090EBAE80F0013F0D3
:1001B000010F18BFFB1A43F0010318478CD500004C
:1001C000ACD500000A444FF0000C10F8013B13F0CE
:1001D000070408BF10F8014B1D1108BF10F8015BA0
:1001E000641E05D010F8016B641E01F8016BF9D193
:1001F00013F0080F1EBF10F8014BAD1C0C1B09D1EA
:100200006D1E58BF01F801CBFAD505E014F8016B5B
:1002100001F8016B6D1EF9D59142D6D370470000ED
:100220000023002400250026103A28BF78C1FBD8FF
:10023000520728BF30C148BF0B607047642900F0E7
:100240005981002070471FB50DF03BF81FBD10B558
:1002500010BD00F0E1FA1146FFF7F5FF09F08EFF3F
:1002600000F0FFFA03B4FFF7F2FF03BC00F002FB5B
:100270002C4B19680868B0E8F04F80F30988BFF389
:100280006F8F4FF0000080F311887047000000006E
:1002900008480068006880F308884FF0000080F389
:1002A000148862B661B6BFF34F8FBFF36F8F00DF64
:1002B00000BF00BF08ED00E0DFF80C00016841F46A
:1002C00070010160704700BF88ED00E0EFF3098026
:1002D000BFF36F8F134B1A681EF0100F08BF20ED8D
:1002E000108A20E9F04F106009B44FF0500080F3FD
:1002F0001188BFF34F8FBFF36F8F0BF0FBFB4FF0F5
:10030000000080F3118809BC19680868B0E8F04F54
:100310001EF0100F08BFB0EC108A80F30988BFF3FD
:100320006F8F7047BC000020EFF30580704700001E
:100330000948804709480047FEE7FEE7FEE7FEE779
:10034000FEE7FEE7FEE7FEE7FEE7FEE704480549B5
:10035000054A064B704700005561000889010008F6
:10036000985D002098630020985F0020985F00202F
:1003700053EA020C00F069802DE9F04B4FF00006C3
:10038000002B1FBFB3FA83F503FA05F424FA05F630
:100390005E4012BF1643B2FA82F502FA05F4C5F1C7
:1003A00020051EBF22FA05FC44EA0C04203556EA5B
:1003B000044C4FEA144418BF641C4FF000084FF07F
:1003C0000009904271EB030C39D3002919BFB1FA2F
:1003D00081F701FA07F6B0FA80F700FA07F6C7F1DD
:1003E00020071EBF20FA07FC46EA0C062037B6FBA2
:1003F000F4FCA7EB0507103F07F01F0BCBF120061D
:100400000CFA0BFB2CFA06F644BFB3460026202F4D
:10041000A4BF5E464FF0000B5BEA060C08BF4FF02E
:10042000010B19EB0B09ABFB027C48EB0608C01B68
:1004300006FB02CC0BFB03CC71EB0C01C1E70B46B6
:10044000024641464846BDE8F08B13B54FF0000028
:100450004FF00001AFF30080BDE81C407047000082
:100460000FB41CB5084B06AA7B446946009005985A
:1004700000F05DF904460020694600F06BF9204663
:100480001CBC5DF814FB0000E90200002DE9F041FE
:100490000E460446002020622046E168884730B3BB
:1004A000252805D0D4E901219047206A401CF2E7B5
:1004B000E168204600278847050018D0A5F14100D3
:1004C000192802D820354FF40067324629462046C5
:1004D0002760FFF7B3FE40B1012804D0F61D26F0D7
:1004E00007060836D8E7361DD6E72846DAE7206A39
:1004F000BDE8F0812DE9F041064600241068752919
:10050000314616A510D0AFF30080002802DA404231
:1005100013A507E031688A0701D512A502E0490753
:1005200004D511A5012401E0AFF3008000210A22C7
:1005300006F1240709E0B0FBF2FCB0FBF2F302FB8A
:100540001C00303078541846491C0028F3D123464B
:100550002A463046BDE8F04100F08AB800000000AD
:100560002D0000002B00000020000000032A40F2B4
:10057000308010F0030C00F0158011F8013BBCF145
:10058000020F624498BF11F801CB00F8013B38BF5D
:1005900011F8013BA2F1040298BF00F801CB38BF6B
:1005A00000F8013B11F0030300F0D980083AC0F0D5
:1005B000088051F8043B083A51F804CBA0E8081031
:1005C000F5E7121D5CBF51F8043B40F8043BAFF364
:1005D0000080D20724BF11F8013B11F801CB48BFBE
:1005E00011F8012B24BF00F8013B00F801CB48BFF4
:1005F00000F8012B704702F0FF0343EA032242EAAE
:10060000024200F0E0B84FF0000200B513469446F5
:100610009646203922BFA0E80C50A0E80C50B1F15A
:100620002001BFF4F7AF090728BFA0E80C5048BF6E
:100630000CC05DF804EB890028BF40F8042B08BF0C
:10064000704748BF20F8022B11F0804F18BF00F808
:10065000012B704770477047704710B500F0D4F811
:10066000006810BD10B5044600F0CEF8046010BD5F
:100670002DE9F0470D4699469246044600F12408BC
:100680000168880604D5E06921F01001216000E0CE
:100690000120A84201DD471B00E00027A1697A196B
:1006A00002EB0900081AA0612078C00602D4204697
:1006B000AFF30080002608E0D4E901211AF8060013
:1006C0009047206A401C761C20624E45F4DB20785F
:1006D000C0060AD52046AFF3008006E0D4E9012128
:1006E00030209047206A401C2062381EA7F1010785
:1006F000F4DC07E0D4E9012118F805009047206AEE
:10070000401C2062281EA5F10105F3DC2046AFF352
:1007100000802078000602D50220BDE8F087012085
:10072000FBE7000001694A1C02610878704700B5C8
:100730008FB0CDE901310021059105497944CDE91A
:10074000031011466846FFF7A1FE0FB000BD000080
:10075000E5FFFFFF0A6802F8010B0A60704710B559
:10076000203AC0F00B80B1E81850203AA0E81850A9
:10077000B1E81850A0E81850BFF4F5AF5FEA027C6A
:1007800024BFB1E81850A0E8185044BF18C918C0D9
:10079000BDE810405FEA827C24BF51F8043B40F87A
:1007A000043B08BF7047D20728BF31F8023B48BF5F
:1007B00011F8012B28BF20F8023B48BF00F8012B9D
:1007C00070474FF000020429C0F0128010F0030CB3
:1007D0003FF41BAFCCF1040CBCF1020F18BF00F8C2
:1007E000012BA8BF20F8022BA1EB0C01FFF70DBFD6
:1007F0005FEAC17C24BF00F8012B00F8012B48BF41
:1008000000F8012B7047000000487047385D002059
:1008100000487047385D00207546FFF7F9FFAE4687
:1008200005006946534620F00700854618B020B5FC
:10083000FFF78CFDBDE820404FF000064FF00007A9
:100840004FF000084FF0000B21F00701AC46ACE878
:10085000C009ACE8C009ACE8C009ACE8C0098D46E5
:10086000704710B50446AFF300802046BDE8104045
:10087000FFF7F8BC01491820ABBEFEE726000200D6
:100880007047FEE72DE9F04F6B4C2078AA2878D10D
:10089000607CDD2875D10F21A01C00F0AFF96749FD
:1008A0000870617881426CD1DFF894C1B4F902100C
:1008B000DFF890A1ACF80010B4F90470DFF888E11B
:1008C000AAF80070B4F90600DFF880B1AEF80000B5
:1008D000B4F908305E4DABF80030B4F90A20DFF807
:1008E00074912A80B4F90C505B4EA9F800505FEA6D
:1008F000014800D53143ACF800105FEA074C00D541
:100900003743AAF80070070400D53043AEF8000062
:10091000190400D533434E48ABF80030110400D51C
:1009200032430280290400D535434C4AA9F80050CF
:100930004B4915784B4EEF07A77B4FF001034FF063
:1009400000004FEAC77701D01FB104E01FB10B6070
:1009500001E008603060AF07A77B4FEA877703D4D8
:10096000002F05DA4B6003E0002F01DB4860706068
:100970006F07A77B4FEA477704D4002F06DA8B6016
:1009800004E056E0002F01DB8860B0602F07A77BF2
:100990004FEA077703D4002F05DACB6003E0002F7E
:1009A00001DBC860F060EF06A77B4FEAC76703D49E
:1009B000002F05DA0B6103E0002F01DB08613061D5
:1009C000AF06A77B4FEA876703D4002F05DA4B6198
:1009D00003E0002F01DB486170616D06A57B4FEAE3
:1009E000456503D4002D05DA8B6103E0002D01DBA2
:1009F0008861B0611C491A4D0E7805F12805F7078A
:100A0000E77B4FEAC77701D01FB103E017B12B6036
:100A100000E02860B60704D4E07B800705D56B6052
:100A200003E0E37B9B0700D46860A07B1070E07B51
:100A30000870BDE8F08F0000E40400204E000020A4
:100A4000400000204200002044000020460000201A
:100A5000480000204A0000200000FFFF4C0000205A
:100A60004C540020E80500204D000020014800F013
:100A700026BB00009C060020014800F020BB0000BF
:100A80009C0600202DE9F84FDFF89CC0DDE90C95AD
:100A9000DDE90A764FF40074CCF8004000244FF0F2
:100AA000080ACCF80840CCE9034ADFF880C04FEAD6
:100AB00010288CF800808CF80100080A8CF80200DD
:100AC0008CF80310100A8CF804008CF80520180A22
:100AD0008CF806008CF807306B46624612491448C1
:100AE00000F084F9104840F2FF1130306B4684600A
:100AF0000160C0E9034A0D48390A1030024601700E
:100B00004770310A8170C6704FEA1921017180F86F
:100B10000590290A81710449C5713031044800F0FB
:100B200065F9BDE8F88F0000D85C0020EA030020DA
:100B30009C060020014800F0C2BA0000C406002054
:100B4000014800F0BCBA0000C40600202DE9F84FAF
:100B5000DFF89CC0DDE90C95DDE90A764FF40074FE
:100B6000CCF8004000244FF0080ACCF80840CCE94B
:100B7000034ADFF880C04FEA10288CF800808CF818
:100B80000100080A8CF802008CF80310100A8CF897
:100B900004008CF80520180A8CF806008CF8073041
:100BA0006B4662461249144800F020F9104840F2A2
:100BB000FF1130306B4684600160C0E9034A0D4884
:100BC000390A1030024601704770310A8170C670D0
:100BD0004FEA1921017180F80590290A81710449B1
:100BE000C5713031044800F001F9BDE8F88F00000C
:100BF000F05C0020F2030020C4060020034610B57C
:100C00000120002202E09C5C6040521C8A42FADB18
:100C100010BD0000F0B50A78012502239AB14F7883
:100C200003261A4A1A4CFFEE000A012F0DD0B7EE28
:100C3000001A022F0ED010EE106AA6421BDB4D7078
:100C400080ED001AF0BD0D701DE010EE105A9542B7
:100C500008D210E010EE103AA342F0DA10EE103A8B
:100C6000934203D34E70C0ED000AF0BD9FED090A18
:100C700080ED000AF0BD10EE100AA042FADA10EE84
:100C8000100A9042F6D24B70F0BD000000409CC5A7
:100C900000409C4500000000014800F021BD00001C
:100CA000B0090020014800F01BBD0000100A002020
:100CB000014800F015BD0000F0080020014800F0D8
:100CC0000FBD000050090020014800F009BD0000E0
:100CD000D00A0020014800F003BD0000700A002087
:100CE00001681823CAB2103AB2FBF3F2054B6FF356
:100CF0000901032A9B5CC36500D9091D816508466B
:100D000070470000A0D4000810B5014600208B6990
:100D10008A6A4FF0C07453B1B3F5005F15D072B159
:100D2000012A0CD0022A0AD0032A09D104E01AB100
:100D3000012A06D0022A03D1C96AC90100D50120BF
:100D400010BDC96AA142FAD010BD002AF7D0012A0D
:100D5000F2D0022AF3D0032AF3D010BD30B50468D4
:100D6000256825F480252560046863608368402B2E
:100D7000036803D099600068C26030BD9A60006863
:100D8000C16030BD704710B54FF4806000F0F6FED2
:100D90004FF4006000F0F2FEBDE810404FF48050C8
:100DA00000F0ECBE102000F0E9BE10B5202000F0ED
:100DB000E5FE402000F0E2FEBDE810404FF48070F8
:100DC00000F0DCBE72B6FEE790F82020012A07D0C2
:100DD000022A05D0416A41F4802141620120704716
:100DE000006842690A43426100207047F0B590F8FC
:100DF00020500468A468012D05D0022D03D0416A5B
:100E000041F4802157E014F0406F01D1E5004FD547
:100E1000C4F301640125A5401D608D684FF4C073C3
:100E20009DB1CE6835434E6845EAC605066803EBBA
:100E30000417F5514FF4C275076805EB04150E69E8
:100E40007E51097D012905D009E00E88CD6845EA6B
:100E50004655EBE701684E5946F480764E511179BC
:100E6000D579567941EA056195792D0445EA06253B
:100E700029434FF4C676056806EB0416A95111788C
:100E8000D57841EA0561957852782D0445EA022229
:100E900011434FF4C475026805EB04155151006805
:100EA00003EB0411425842F0010242500020F0BD11
:100EB000416A41F4001141620120F0BD10B590F883
:100EC0002020012A07D0022A05D0416A41F480215E
:100ED0004162012010BD3B48D0F8002242F00102DF
:100EE000C0F80022D0F8002222F47C52C0F8002280
:100EF000D0F800224B6A42EA0322C0F800220A7DA1
:100F000002F01F0301229A40D0F81C329343C0F82C
:100F10001C32CB69B3B9D0F80C329343C0F80C3211
:100F20008C894B6864F31F434C6900EBC404C4F81C
:100F300040320C890B6864F31F434C6900EBC40416
:100F4000C4F84432CB69012B16D1D0F80C321343CC
:100F5000C0F80C320C884B6864F31F434C6900EBFB
:100F6000C404C4F840320C89CB6864F31F434C6955
:100F700000EBC404C4F844328B69002BD0F804326F
:100F80000ED01343C0F804320B69002BD0F8143292
:100F900008D01343C0F81432096A012904D008E0CC
:100FA0009343EFE79343F5E7D0F81C121143C0F8E1
:100FB0001C12D0F8001221F00101C0F8001200202C
:100FC00010BD000000640040704770B590F82040EC
:100FD000012C05D0022C03D0416A41F4802128E085
:100FE000046809B32469A40720D04FF4D8740568B5
:100FF00004EB01142D5915F00405956005682D5971
:101000001AD0ED08556005682C5904F00204D4602C
:101010004FF4DA74056804EB01142E5906F00F063C
:10102000082E0CD308250DE0E468DCE7416A41F4A2
:1010300000114162012070BD6D0D1560E3E72D596F
:1010400005F00F05156105682D59C5F30725956154
:1010500005682C59240C54614FF4DC72046802EBCF
:101060000112A4581C700468A458240A5C70046817
:10107000A458240C9C700468A258120EDA704FF425
:10108000DE72046802EB0112A4581C710468A458B3
:10109000240A5C710468A458240C9C710468A2584A
:1010A000120EDA71006829B1016941F02001016175
:1010B000002070BDC16841F02001C160F8E72DE952
:1010C000F05F0546006800244669D0F80490876800
:1010D000D0F80CB0D0F810A0D0F81880F10748D0A4
:1010E000F90714D001218160B80703D5284600F024
:1010F00096FA0CE0780702D54FF4006407E0380751
:1011000002D54FF4805402E0284600F087FAF80533
:1011100016D529684FF480708860B80503D5284635
:1011200000F07FFA0CE0780502D544F4005407E0A3
:10113000380502D544F4804402E0284600F070FAF5
:10114000F80316D529684FF480308860B80303D5BA
:10115000284600F068FA0CE0780302D544F4004415
:1011600007E0380302D544F4803402E0284600F05A
:1011700059FA300707D55FEACB6004D529681020FB
:1011800044F40074C86070074FF0080707D55FEAA1
:101190000B7004D52868C760284600F0A9F9B0078D
:1011A00006D52868C068800702D0284600F0A2F95A
:1011B000700607D55FEACA6004D52968102044F498
:1011C00080640861B00607D55FEA0A7004D5286814
:1011D0000761284600F0F2F9F00606D52868006994
:1011E000800702D0284600F0EAF9B00308D55FEA8C
:1011F000C96005D5296810204860284600F0E0F94C
:10120000F00307D55FEA097004D5286847602846CF
:1012100000F00AFA300446D55FEA497040D5F0057F
:1012200004D55FEAC87001D044F00104B00504D5CC
:101230005FEA887001D544F00204700504D55FEAC6
:10124000487001D544F00404300529D518F0700F1A
:1012500026D008F07000402815D006DC102809D0F0
:1012600020280AD0302816D10AE050280ED0602855
:1012700011D10EE044F008040DE044F010040AE03F
:1012800044F0200407E044F0400404E044F080040B
:1012900001E044F480742868816921F07001816163
:1012A000296804204860002C05D0686A20436862E1
:1012B0002846FFF789FEBDE8F09F70B5040003D013
:1012C00094F8200010B104E0012070BD204600F029
:1012D00081F82068016841F00101016000F052FDD1
:1012E0000546052604E000F04DFD401B0A2811D8F4
:1012F00020684068C007F6D02068016821F002012C
:10130000016000F03FFD05460BE000F03BFD401B97
:101310000A2806D9606A40F40030606284F82060D0
:10132000D2E7206840688007EFD4207E012820683B
:1013300001683DD021F080010160607E01282068B5
:10134000016838D021F040010160A07E01282068AA
:10135000016833D021F020010160E07E012820687F
:1013600001682ED041F010010160207F0128206823
:10137000016829D021F008010160607F0128206800
:10138000016824D021F004010160D4E9020108437E
:10139000D4E90412114308436168491E08432168D7
:1013A000C86100206062012084F82000002070BD28
:1013B00041F08001C0E741F04001C5E741F0200164
:1013C000CAE721F01001CFE741F00801D4E741F06E
:1013D0000401D9E7F0B587B0044614216846FFF749
:1013E00012F93E4B3E48DFF8F0E01968D4F800C02F
:1013F0003B4A03250226092710300024491CF445E6
:101400002AD11960012907D1016841F000710160FA
:10141000006800F000700590106840F0080010604F
:101420001068CDE9005600F00800CDE90470694667
:101430002C48CDE9024500F0ADFB00220721132026
:1014400000F072FD132000F061FD0022072114203E
:1014500000F06AFD14203AE0DFF88CE0F44538D162
:10146000D0F800C04CF0806CC0F800C0D0F800C0CC
:1014700001290CF0806CCDF814C0196007D1016807
:1014800041F000710160006800F000700590106884
:1014900040F002001060106802AB00F002000590FE
:1014A0006020CDE9000683E8B00069460F4800F0EF
:1014B00071FB002205213F2000F036FD3F2000F0A7
:1014C00025FD00220521402000F02EFD402000F0E7
:1014D0001DFD07B0F0BD000000640040A800002022
:1014E00030380240000C0240006800400004024016
:1014F0007047000030B505462C482D4C8BB0854216
:1015000026D101AB03AA00212846FFF75EFD039810
:10151000A0F20120072817D8C0B22649207001EB9D
:10152000001001880181BDF8041049BA0180BDF89E
:10153000061049BA4180BDF8081049BA81809DF86B
:101540000A10817107F090FE02211848FFF73CFC59
:101550001948854227D102AB04AA00212846FFF78B
:1015600034FD0498A0F20120072818D81149C0B210
:101570006070803101EB001001880181BDF8081016
:1015800049BA0180BDF80A1049BA4180BDF80C1073
:1015900049BA81809DF80E10817107F065FE022125
:1015A0000548FFF711FC0BB030BD00009C06002081
:1015B000E8030020985B0020C406002070477047B5
:1015C0007047000070B5044690F82000012804D050
:1015D000606A40F40020606218E0022084F8200075
:1015E0002068016821F00101016000F0CBFB054695
:1015F0000EE000BF00F0C6FB401B0A2808D9606A55
:1016000040F400306062052084F82000012070BDA5
:1016100020684068C007EDD1606270BD70477047B8
:10162000704770477047704770472DE9F041044696
:10163000876D00F0A7FB064694F8350000250228C8
:1016400006D08020606584F834500120BDE8F08128
:101650002068016821F0160101602068416921F0CD
:1016600080014161206C08B9A06C20B1206801683C
:1016700021F0080101602068016821F0010101608A
:101680000CE000F07FFB801B052807D92020606557
:10169000032084F8350084F83450D7E720680068C8
:1016A000C007EED194F85C103F208840B86001205C
:1016B00084F8350084F834500020C7E790F83510DE
:1016C000022903D08021416501207047052180F85F
:1016D00035100068016821F00101016000207047A9
:1016E0002DE9F84304464FF00009CDF80090634817
:1016F0004FF41651A56D0068B0FBF1F72E6894F811
:101700005C10082000FA01F131420FD021680A680C
:1017100052070BD50A6822F004020A6094F85C10A4
:101720008840A860606D40F00100606594F85C102E
:101730004FF0010808FA01F0304208D021684969E9
:10174000090604D5A860606D40F00200606594F859
:101750005C1004208840304208D02168096889075D
:1017600004D5A860606D40F00400606594F85C10DA
:1017700010208840304218D021680968090714D524
:10178000A86020680168490304D50068000308D5F3
:10179000A16C07E00168C90503D4016821F00801C4
:1017A0000160216C09B12046884794F85C10202024
:1017B0008840304231D021680968C9062DD5A8601B
:1017C00094F8350005282068016806D0490347D5FC
:1017D000006800031DD4616C1CE021F0160101605B
:1017E0002068416921F080014161206C08B9A06C3A
:1017F00020B12068016821F00801016094F85C10B4
:101800003F208840A86084F8358084F83490216DAA
:101810001FE0E16B09B120468847606D00282BD09E
:10182000606DC00714D0052084F835002068016879
:1018300021F0010101600098401C0090B84203D8DB
:1018400020680068C007F6D184F8358084F83490A9
:10185000E16C002910D001B02046BDE8F0430847F4
:101860000168C905D5D4016821F01001016084F830
:10187000358084F83490CCE7BDE8F883B8000020C8
:101880002DE9F041044600F07DFA06465CB10220E5
:1018900084F83500002584F834502068016821F070
:1018A000010101600DE00120BDE8F08100F06AFA5D
:1018B000801B052805D920206065032084F83500A9
:1018C000F2E720680068C007F0D12268116820485C
:1018D0000140D4E901031843D4E9033633431843E4
:1018E00063691843A3691843E3691843236A1843DB
:1018F0000843616A042903D1D4E90B13194308434F
:10190000106020684069666A20F0070130460E4387
:10191000012704280CD1A06A0643E06A40B12046A2
:10192000FFF7F2F920B14020606584F83570BAE71E
:10193000206846612046FFF7D3F994F85C203F21E8
:1019400091408160656584F835700020ACE7000047
:101950003F8010F02DE9F0410446866D90F8340088
:10196000002501280DD0012084F8340094F835704A
:101970000020012F07D084F8340002252846BDE856
:10198000F0810220FBE7022784F83570606520466D
:10199000FFF7E4F994F85C103F208840B0602068BD
:1019A000016841F016010160206C20B120680168D7
:1019B00041F0080101602068016841F00101016007
:1019C000DCE700002DE9F0412DED068B9FED5E0B6D
:1019D0005F4D01265F4F604C41F28838B0F5805F63
:1019E00028D0B0F5806F3AD040284CD0102860D075
:1019F0005D4C5C4B5D4FDFF878C1594A94ED009B1C
:101A0000564993ED00AB97ED008BDCF81840A2F13E
:101A10000805B0F5006F61D0202865D0B0F5807F53
:101A20007DD12868401C9FED530A2860524880ED04
:101A3000250A7EE094ED001B53EC102B51EC110BAA
:101A40000AF0D8FF09D12868C1680088C1EB41318C
:101A500008440BF068F8C4E900013E6169E094EDC8
:101A6000021B53EC102B51EC110B0AF0C3FF60D199
:101A70006868C1680088C1EB413108440BF053F835
:101A8000C4E9020155E094ED041B53EC102B51EC1A
:101A9000110B0AF0AFFF0AD1A8682968C06809884D
:101AA000C0EB403008440BF03EF8C4E90401BE61CD
:101AB0003FE094ED061B53EC102B51EC110B0AF098
:101AC00099FF09D1E868C1680088C1EB4131084439
:101AD0000BF029F8C4E90601FE612AE00E604868AF
:101AE000012826D0106804E04E600868012820D044
:101AF00050680BF018F853EC1A2B0BF07BF853ECF2
:101B0000192B0BF077F853EC182B0BF073F841EC12
:101B1000180BE1682088C1EB4131084400E00FE078
:101B20000BF001F853EC182B0AF050FD0AF09EFF61
:101B300068604046BDEC068BBDE8F04108F056B940
:101B4000BDEC068BBDE8F081000000000000000045
:101B5000B85C002058050020A0050020085A00208D
:101B600058000020980000209000002088000020ED
:101B7000985C002000007AC4BC570020044910B5CE
:101B80000A68024202D00860FFF71CFF10BD000087
:101B9000143C01402DE9F84FDFF8BCA100220125DB
:101BA00003264FF00F090AF1040BAAF1040E00BF3F
:101BB0000B6805FA02F42340A34270D10F7907F0B5
:101BC0000307012F01D0022F16D187684FEA420880
:101BD00006FA08FC27EA0C07D1F80CC00CFA08FC3E
:101BE0004CEA070CC0F808C04768A7430C79C4F357
:101BF000001494403C4344600C79E443A4070AD0A9
:101C0000C4684FEA420C06FA0CF7BC438F6807FA27
:101C10000CF72743C7600C7904F00304022C12D19F
:101C2000D40800EB840CDCF820405707FF0E09FABB
:101C300007F824EA0804D1F8108008FA07F848EAFF
:101C40000408CCF8208004684FEA420C06FA0CF72E
:101C5000BC430F7907F0030707FA0CF72743076027
:101C60004C6814F4403F70D03C4C276847F48047E0
:101C70002760246822F0030704F480440094384C61
:101C800007EB040CDCF8084897074FEA177809FAC5
:101C900008F7BC43334FB84202D1002724E054E098
:101CA000314FB84201D101271EE0304FB84201D177
:101CB000022719E02E4FB84201D1032714E02D4F1F
:101CC000B84201D104270FE02B4FB84201D10527BC
:101CD0000AE02A4FB84201D1062705E0284FB84252
:101CE00001D1072700E0082707FA08F72743CCF8B7
:101CF0000878DAF800405746D1F804C09C435FEA00
:101D0000CC2C00D51C433C60DBF800405F46D1F88A
:101D100004C09C435FEA8C2C00D51C433C60DEF879
:101D200000407746D1F804C09C435FEA8C3C00D564
:101D30001C433C60084F083F3C68D1F804C09C43FA
:101D40005FEACC3C00D51C433C60521C102AFFF4D7
:101D50002FAFBDE8F88F0000083C01404438024036
:101D60000030014000000240000402400008024030
:101D7000000C024000100240001402400018024013
:101D8000001C02400148806870470000AC00002041
:101D900070B5040011D021684CF6CC400860216871
:101DA00045F255500860D4E9000141602168A068FF
:101DB0008860FFF7E7FF05460DE0012070BD00BF1A
:101DC000FFF7E0FF401B312805D92068C068800775
:101DD00001D0032070BD2068C0688007F0D1216861
:101DE0004AF6AA200860002070BD00684AF6AA21C1
:101DF00001600020704700000248816802781144A9
:101E000081607047AC0000200B4810B5016841F4B8
:101E100000710160016841F480610160016841F472
:101E200080710160032000F09FF80F2000F006F899
:101E300000F050F8002010BD003C024030B50546CF
:101E40001F4887B00024016841F004010160006868
:101E500006A900F00400009001A800F031F90498F0
:101E6000A8B100F053F940001649174AB0FBF1F150
:101E70001648491E026040F2E732C0E90324C0E977
:101E80000114846100F092FB040003D015E000F01F
:101E90003DF9E9E70D4800F0D5FB04000DD11E2007
:101EA00000F034F8102D07D2002229461E2000F041
:101EB0003BF80748056000E0012407B0204630BD2C
:101EC0004038024040420F0000080040300B002024
:101ED000B00000200C4882B0016841F480410160EC
:101EE000006800F4804000900748001F016841F03E
:101EF000805101600068002200F0805000900F21A6
:101F0000901E02B000F010B844380240002809DBEF
:101F100000F01F02012191404009800000F1E02003
:101F2000C0F8001170470000F0B40E4B1B680C465F
:101F3000C3F30223C3F10705042D00D90425191D9D
:101F4000072901D2002300E0DB1E012606FA05F175
:101F5000491E214099409E40761E16403143F0BCF8
:101F600004F07DBC0CED00E0064900F007020868B3
:101F70004FF6FF03184040EA0220034A104308606E
:101F8000704700000CED00E00000FA052DE9F04775
:101F90000E46050065D0DFF81481D8F80000F7B2CE
:101FA00000F00700B04207D288F80070D8F80000AF
:101FB00000F00700B04254D128683D4C810712D58B
:101FC000400703D5206840F4E050206028780007DF
:101FD00003D5206840F4604020602068A96820F0A4
:101FE000F000084320602878C0072DD03049686889
:101FF0000839012812D0022813D0032811D009680B
:10200000890700292DDA216821F0030101432160AD
:10201000FFF7B8FE814641F2883A0EE0096889036D
:10202000EFE709688901ECE7FFF7ACFEA0EB0901D7
:10203000514502D90320BDE8F0872068696800F0A7
:102040000C00B0EB810FEFD1D8F80010404601F042
:102050000701B14207D90770006800F00700B042DD
:1020600001D00120E7E72878400705D52068E96816
:1020700020F4E050084320602878000706D5206847
:10208000296920F4604040EAC100206000F05EF859
:102090002168084AC1F30311515CC8400649086031
:1020A00006480068FFF7CAFE0020C4E7003C024073
:1020B00008380240A8D40008B8000020B000002072
:1020C0000F2202600C4A136803F003034360136895
:1020D00003F0F0038360136803F4E053C3601268F5
:1020E0004FF4E05303EAD20202610448006800F0B2
:1020F000070008607047000008380240003C0240BA
:102100000148006870470000B800002004480549F5
:1021100000680968044AC1F38221515CC8407047D5
:10212000B800002008380240B8D400080448054927
:1021300000680968044AC1F34231515CC8407047E5
:10214000B800002008380240B8D40008154810B57F
:10215000006810F00C02144813D04110042A0FD06C
:10216000082A0ED10F4C241F2268236802F03F0278
:102170005B0207D52068C0F38810A0FB010106E0D0
:10218000084610BD2168C1F38811A1FB000100239E
:10219000FEF7EEF82168C1F30141491C4900B0FB8C
:1021A000F1F010BD083802400024F4002DE9F84F8A
:1021B00004006ED02078DFF84C93C007A9F1040525
:1021C0004AD009F104000168C1F38101012908D056
:1021D0000068C0F3810002280AD1D9F8000040024B
:1021E00006D52868800337D560680028E1D033E041
:1021F0006068B0F5803F10D0B0F5A02F286810D0EF
:1022000020F480302860286820F4802028606068EE
:10221000A8B1FFF7B7FD06460DE0286840F480300E
:10222000F4E740F480202860F7E700BFFFF7AAFD3D
:10223000801B642873D828688003F7D50CE0FFF76B
:10224000A1FD064605E000BFFFF79CFD801B64284A
:10225000F0D828688003F7D42078DFF8AC828007B4
:102260004FF0000A3ED5A748001D016811F00C0F81
:1022700008D00068C0F3810002280BD1D9F8000013
:10228000400207D42868800716D5E068012800D1ED
:1022900012E033E1E068B8B10120C8F80000FFF7B0
:1022A00071FD064605E000BFFFF76CFD801B0228AC
:1022B000C0D828688007F7D52868216920F0F80081
:1022C00040EAC10028600DE0C8F800A0FFF75AFD01
:1022D000064604E0FFF756FD801B02281FD8286839
:1022E0008007F7D42078000722D5864F8748616998
:1022F000703771B101210160FFF744FD064604E02B
:10230000FFF740FD801B022809D838688007F7D501
:102310000EE0C0F800A0FFF735FD064605E082E0BC
:10232000FFF730FD801B02287DD838688007F7D47E
:102330002078400768D5DFF8CCB100270BF13C0BC3
:10234000DBF80000C0000BD4DBF8001041F0805136
:10235000CBF80010DBF80000012700F0805000905F
:102360006B4E3068C00510D4306840F48070306027
:10237000FFF708FD009005E0FFF704FD0099401A03
:10238000022850D83068C005F6D55E4EA0686C367D
:1023900001280FD00528306810D020F001003060EF
:1023A000306820F004003060A068B8B1FFF7EAFCA4
:1023B00000900FE0306840F00100F4E740F00400C6
:1023C0003060F7E7FFF7DEFC0099411A41F28830F0
:1023D000814266D830688007F4D50EE0FFF7D2FC62
:1023E000009007E0FFF7CEFC0099411A41F28830D7
:1023F000814256D830688007F4D42FB1DBF8001042
:1024000021F08051CBF80010A069C8B33D49091DE7
:102410000968C1F3810102294AD00228504607D039
:10242000C8F8600000E03CE0FFF7ACFC04463BE08D
:102430004746C8F86000FFF7A5FC064605E000BF68
:10244000FFF7A0FC801B02282BD828688001F7D456
:10245000D4E907010843A16A2E4A490802EB014169
:10246000626A41EA8211084394F82C1040EA016143
:10247000C9F8001001203866FFF784FC044606E026
:102480003EE000BFFFF77EFC001B022809D8286849
:102490008001F7D534E000BFFFF774FC001B022871
:1024A00002D90320BDE8F88F28688001F4D427E022
:1024B0000128F7D0D9F80000E26900F480019142C8
:1024C0001CD1226A00F03F01914217D147F6C0713A
:1024D000626A0140B1EB821F10D1A26A4FF0FF3354
:1024E00000F4403103EB5202B1EB024F06D194F8F5
:1024F0002C1000F07060B0EB016F01D00120D1E72B
:102500000020CFE70438024000004742800E4742D7
:10251000007000400000FFFF7047704770B590F8F2
:102520003C20012A32D0012480F83C40022280F86D
:102530003D2003685A689D6822F070060A6832439D
:102540005A60134B02689A4214D0B2F1804F11D0F6
:10255000104B9A420ED0104B9A420BD00F4B9A421E
:1025600008D00F4B9A4205D00E4B9A4202D00E4B28
:102570009A4204D1496825F080031943916080F89C
:102580003D40002180F83C10084670BD022070BD1F
:10259000000001400004004000080040000C004022
:1025A00000040140004001400018004010B5040044
:1025B00003D094F83D0010B107E0012010BD0020C9
:1025C00084F83C00204600F01FF8022084F83D000B
:1025D000211D206803F0D2FD012084F8460084F814
:1025E0003E0084F83F0084F8400084F8410084F8FD
:1025F000420084F8430084F8440084F8450084F8DD
:102600003D00002010BD000008B500680B4988425D
:1026100012D10B48016841F40031016000680022CA
:1026200000F40030009006211920FFF77DFCBDE882
:1026300008401920FFF76ABC08BD000000440140B3
:102640004438024090F83D10012901D00120704724
:10265000022180F83D100168CA6842F00102CA6098
:1026600000681149884214D0B0F1804F11D00F4951
:1026700088420ED00E4988420BD00E49884208D0BD
:102680000D49884205D00D49884202D00C49884244
:1026900004D1816801F00701062903D0016841F0E7
:1026A000010101600020704700000140000400406B
:1026B00000080040000C00400004014000400140C0
:1026C0000018004070472DE9F04104460068C668D4
:1026D00005694FF00007A90713D5B10711D5F91EF9
:1026E000016101202077206880698007204602D0A0
:1026F000FFF7E8FF04E000F0F5F8204600F0B2F93B
:102700002777680716D5700714D521686FF0040085
:102710000861022020772068806910F4407F2046FD
:1027200002D0FFF7CFFF04E000F0DCF8204600F015
:1027300099F92777280715D5300713D521686FF049
:1027400008000861042020772068C06980072046BF
:1027500002D0FFF7B7FF04E000F0C4F8204600F015
:1027600081F92777E80616D5F00614D521686FF0B1
:1027700010000861082020772068C06910F4407FAD
:10278000204602D0FFF79EFF04E000F0ABF82046A1
:1027900000F068F92777E80708D0F00706D021682D
:1027A0006FF001000861204600F0C2F9280608D544
:1027B000300606D521686FF0800008612046FFF7DB
:1027C000ABFE680608D5700606D521686FF040009C
:1027D0000861204600F0C6F9A8060AD5B00608D55B
:1027E00021686FF0200008612046BDE8F041FFF746
:1027F00094BEBDE8F0810000F0B587B00446142116
:102800006846FDF700FF2168002531480224314A5F
:10281000314EB1F1804F21D0304B994244D1016803
:1028200041F001010160016801F0010105910168B9
:1028300041F0020101600068694600F00200059065
:10284000C0208DE83100CDE903541046FFF7A2F90E
:102850000094CDE901456946304635E0016841F014
:1028600001010160016801F001010591016841F079
:10287000020101600068012700F00200059020209D
:102880008DE83100CDE9035769461046FFF782F91C
:1028900008208DE83100CDE903576946304600BF76
:1028A000FFF778F907B0F0BD0D4B9942FAD10168F6
:1028B00041F0010101600068694600F001000590E7
:1028C00007208DE831001046CDE90354E8E7000009
:1028D0003038024000000240000402400004004082
:1028E000000C0040704770B5044690F83C0000268C
:1028F0000D4601280FD0012084F83C006AB1042A5B
:102900001DD0082A2FD00C2A3FD00126002084F8A1
:102910003C00304670BD022070BD206803F0A8FC6A
:102920002068816941F0080181612068816921F096
:1029300004018161206881692A69114311E02068DE
:1029400003F0C6FC2068816941F400618161206860
:10295000816921F480618161206881692A6941EA85
:1029600002218161D2E7206803F0E8FC2068C16998
:1029700041F00801C1612068C16921F00401C16111
:102980002068C1692A69114311E0206803F00AFD3B
:102990002068C16941F40061C1612068C16921F406
:1029A0008061C1612068C1692A6941EA0221C1616F
:1029B000ACE710B5040003D094F83D0010B107E077
:1029C000012010BD002084F83C00204600F01EF8D5
:1029D000022084F83D00211D206803F0CFFB012078
:1029E00084F8460084F83E0084F83F0084F84000F4
:1029F00084F8410084F8420084F8430084F84400DD
:102A000084F8450084F83D00002010BD08B5016839
:102A10001148B1F1804F0BD0104A914210D101689A
:102A200041F002010160006800F00200009008BD62
:102A3000016841F001010160006800F00100F5E764
:102A4000074A9142F3D1016841F008010160006832
:102A500000F00800EAE700004038024000040040AF
:102A6000000C00407047000010B50446022249B136
:102A700004290ED0082913D094F84100012816D05B
:102A8000012010BD94F83E000128F9D184F83E20C1
:102A90000FE094F83F000128F2D184F83F2008E0CD
:102AA00094F840000128EBD184F8402001E084F83C
:102AB00041200122206803F0CDFB16492068164A08
:102AC000884201D0904203D1436C43F400434364F5
:102AD0002068884213D0B0F1804F10D00F4988424F
:102AE0000DD00F4988420AD00E49884207D0904243
:102AF00005D00D49884202D00C49884204D1816832
:102B000001F00701062903D0016841F001010160CD
:102B1000002010BD000001400004014000040040FE
:102B200000080040000C0040004001400018004038
:102B300010B5044600680949884201D1FFF75CF9E5
:102B40000748844209D105F087FC01F0B3F807F08B
:102B5000D1FDBDE8104007F0E3BD10BD0008004006
:102B6000D00700207047704710B5044600680C4934
:102B7000884207D101220B490B4800F0D9FA0B49D2
:102B8000002008700A492068884207D107490122BD
:102B9000BDE81040491C074800F0CABA10BD00004B
:102BA00000480040E40400206008002000000020ED
:102BB0000044004018080020F8B501680446086881
:102BC000CA684B6910F00F0F4FF0000559D003F0A1
:102BD000010602F49077374365D0C10705D0D105CF
:102BE00003D5616C41F001016164410705D5D90746
:102BF00003D0616C41F002016164810705D5D907FA
:102C000003D0616C41F004016164010707D502F053
:102C10002001314303D0616C41F008016164616CB3
:102C200000293AD0800604D5900602D5204603F04C
:102C3000BBFC20684069616CC0F38010090700D4B8
:102C400060B3204603F07BFC20684069400621D534
:102C50002068143050E8001F21F0400140E80012C5
:102C6000002AF5D1E06BA8B16E490165E06BFEF773
:102C700025FD002811D0E06B016D01B0BDE8F040EA
:102C8000084783060FD593060DD52046BDE8F840CA
:102C900003F08ABC2046FFF767FFF8BD2046FFF728
:102CA00063FF6564F8BD266B2023012E7DD1C60627
:102CB0007BD5D60679D508684868009048694FF0FA
:102CC0000206400641D5E16B086840680004000C2C
:102CD000E8D0A28D8242E5D9E085C869B0F5807F51
:102CE0002DD020680C3050E8001F21F4807140E89E
:102CF0000012002AF5D12068143050E8001F21F09E
:102D0000010140E80012002AF5D12068143050E893
:102D1000001F21F0400140E80012002AF5D184F89C
:102D20004230256320680C3050E8001F21F010016C
:102D300040E80012002AF5D1E06BFEF776FC6663EE
:102D4000A08DE18D401A81B22AE0A08DE18D401A5C
:102D500081B2E08D0028A5D00029A3D022680C32D2
:102D600052E8000F20F4907042E80007002FF5D1E0
:102D70002068143050E8002F22F0010240E80027BC
:102D8000002FF5D184F84230256320680C3050E8DC
:102D9000002F22F0100240E80023002BF5D16663DB
:102DA0002046FFF7E0FEF8BDFFE705062BD5150628
:102DB00029D594F841002128F5D1A068B0F5805FAD
:102DC00001D12069B0B1206A411C216221680078DC
:102DD0004860E08C401E0004000CE084E3D12068D1
:102DE000C16821F08001C1602068C16841F04001E4
:102DF000C160D8E7206A0088C0F308004860206AF4
:102E0000801C2062E5E74006CDD55006CBD5CA68C8
:102E1000204622F04002CA6084F8413000F0B2FA45
:102E2000C1E70000F563000870B5040004D094F811
:102E30004100002510B106E0012070BD84F840502B
:102E4000204600F023F8242084F841002068C1685F
:102E500021F40051C160204603F008FC206801699C
:102E600021F4904101612068416921F02A0141610A
:102E70002068C16841F40051C1606564202084F875
:102E8000410084F842006563002070BD2DE9F04FD9
:102E900087B0044614216846FDF7B5FB9A48DFF871
:102EA00064821038D4F800C0974B022103224027D7
:102EB000002506154FF007094FF0006BC4455BD1A4
:102EC000D3F800C0AA464CF4003CC3F800C01B680D
:102ED00003F400330593036843F0080303600068BC
:102EE00000F00800059060208DE82300CDE903295B
:102EF00069468648FEF74EFEDFF818828449404650
:102F0000C8F80010C0E901B5C0E90356C8F814506C
:102F1000C8F81850C8F81C50C8F82050D946C8F84E
:102F20002450FEF7ADFC08B1FDF74CFF794DC4F815
:102F30003C8077486035C8F838401830AF60C5E944
:102F40000009C5E903A6C5F814A0C5F818A0C5F87E
:102F50001CA0C5F820A02846C5F824A0FEF790FCC8
:102F600008B1FDF72FFFA563002207212620AC63DF
:102F7000FEF7DAFF262061E0DFF89C81C44562D1CC
:102F8000D3F800C0AA464CF4802CC3F800C01B68DC
:102F900003F480230593036843F002030360006891
:102FA00000F0020005904FF440608DE82300CDE969
:102FB000032969465948FEF7EDFDDFF85881544969
:102FC00008F1C00860394046C8F80010C0E901B5F2
:102FD000C0E90356C8F81450C8F81850C8F81C5077
:102FE000C8F82050D946C8F82450FEF749FC08B16B
:102FF000FDF7E8FE4A4DC4F83C804548C8F8384023
:103000003038AF60C5E90009C5E903A6C5F814A0CA
:10301000C5F818A0C5F81CA0C5F820A02846C5F81A
:1030200024A0FEF72DFC08B1FDF7CCFEA56300221D
:1030300007212720AC63FEF777FF2720FEF766FF06
:1030400007B0BDE8F08F374B9C45F9D12E4B1B1DC7
:10305000D3F800C04CF0200CC3F800C01B6803F08C
:1030600020030593036843F004030360006800F045
:1030700004000590C0208DE823000820CDE903203E
:1030800069462948FEF786FDDFF89480274908F154
:1030900060084046C8F80870C0E90356C8F81450E4
:1030A000C8F81850C8F81C504FF02069C8F82050D4
:1030B000C8E90019C8F82450FEF7E2FB08B1FDF793
:1030C00081FE174F1948C4F83880C0377838C8F8DF
:1030D00038403860C7E90195C7E903567D61BD6195
:1030E000FD613D6238467D62FEF7CAFB08B1FDF71F
:1030F00069FEE763002207214720BC63FEF714FF47
:1031000047209BE70044004040380240000C02404A
:1031100088600240F008002000480040000402409F
:10312000100A00200014014000080240A064024080
:1031300090F84230202B01D00220704721B11AB103
:103140000023036303F018BB012070472DE9F0470B
:103150000746006863490126DFF88C81634C00252F
:1031600088422BD108F1100999F80000AA2813D140
:10317000207870B9C8F80060FDF784FB112209F1CE
:1031800001015B48FFF7D4FF267099F80000AA28D8
:1031900002D12078012807D0534901221031544828
:1031A000FFF7C6FF257009E0C8F80060FDF76AFB6D
:1031B0004D49122210314E48FFF7BAFF4D49386889
:1031C00088423DD14948DFF82091401CA9F1C80947
:1031D0000278A08809F8002050B999F800100F294A
:1031E00006D042490122491C4348FFF7A1FF27E0CE
:1031F000401C3E49A0800122491C3F48FFF798FF30
:10320000A088642800D9A58099F8000049460F28B5
:1032100002D1C87BAA2803D0A08810280AD00FE0CA
:10322000A08810280CD102F0A9FCC8F8046002F0B4
:1032300015FA04E000200D54401C1028FBDBA5808B
:103240002E49386888424BD12848274F801C643F5C
:103250000178E088395450B939780F2907D0BDE892
:10326000F04722490122891C2548FFF761BF401C15
:103270001E49E0800122891C2148FFF759FFE088A0
:10328000642800D9E58038780F2801D1387E40B114
:10329000E088192824D100203D54401C1928FBDB6C
:1032A0001DE0E08819281BD10F48643808F0AAF9FE
:1032B0001448228B418E891A6181818EA28A891AD3
:1032C000A181008F218A401A2081D8F8041009B901
:1032D000C8F8006000203D54401C1928FBDBE58045
:1032E000BDE8F08700480040D40400200000002022
:1032F000600800200044004018080020001401402D
:10330000A8080020B45900207047000070B504469A
:1033100090F84100202801D0022070BD49B342B38B
:103320002162A284E28400206064212384F8413079
:10333000A56B114BEB63A56B104B2B64A56B104B6E
:10334000EB64A36B1865256813462A1DA06BFEF776
:1033500001FB21686FF0400008602068143050E8DD
:10336000001F41F0800140E80012002AF5D1002042
:1033700070BD012070BD0000F364000835650008D1
:103380000564000870477047FEE700000F4810B55D
:103390000D4901600321416000214FF4002281604A
:1033A000C0E903124FF44012426101764176817602
:1033B000C17601774177FDF780FF002803D0BDE893
:1033C0001040FDF7FFBC10BD006400409C060020CB
:1033D0000F4810B50D4901600321416000214FF4F1
:1033E00000228160C0E903124FF44012426101766D
:1033F00041768176C17601774177FDF75EFF00283F
:1034000003D0BDE81040FDF7DDBC10BD00680040F2
:10341000C4060020214808B5016841F4001101608C
:10342000016801F400110091016841F4800101601C
:103430000068002200F48000009005210C20FEF7B7
:1034400073FD0C20FEF762FD002205210E20FEF721
:103450006BFD0E20FEF75AFD002205211020FEF71D
:1034600063FD1020FEF752FD002205211120FEF71A
:103470005BFD1120FEF74AFD002205213920FEF7F1
:1034800053FD3920FEF742FD002205214520FEF7BD
:103490004BFDBDE808404520FEF738BD30380240FE
:1034A00010B5154A0021154807F08CF9144C124A42
:1034B0000021E0602432134807F084F90E4A2061AD
:1034C00048320021104807F07DF90B4A60616C32E8
:1034D00000210E4807F076F9074AA06190320021DA
:1034E0000B4807F06FF9044AE061B4320021094843
:1034F00007F068F9206210BDC8D30008955C000889
:10350000600000201D8F000855890008FD5F00083D
:10351000DD5D0008095F000830B587B014216846FA
:10352000FDF771F83548016841F0800101600168DC
:1035300001F080010591016841F00101016001681D
:1035400001F001010591016841F00201016001688B
:1035500001F002010591016841F008010160016874
:1035600001F008010591016841F040010160016826
:1035700001F040010591016841F00401016000681B
:103580004FF4041400F0040005904FF4806001250E
:103590008DE8310069461A48FEF7FCFA70208DE884
:1035A000310069461748FEF7F5FA28028DE8310028
:1035B00069461548FEF7EEFA4FF4C0508DE8310029
:1035C00069461248FEF7E6FA002209210A20FEF7B2
:1035D000ABFC0A20FEF79AFC002209211720FEF717
:1035E000A3FC1720FEF792FC002209212820FEF7F9
:1035F0009BFC2820FEF78AFC07B030BD3038024023
:10360000000C024000180240000802400000024086
:10361000094810B5074901600421416040F2712159
:103620008160FEF7B5FB002803D0BDE81040FDF730
:10363000C9BB10BD00300040EC0600200C4810B59E
:103640000A490160A7214160002140F2E732C0E948
:103650000212016180218161FEF7A8FF002803D0DA
:10366000BDE81040FDF7AEBB10BD000000440140B6
:10367000D007002010B58AB0002407941C216846AA
:103680000894FCF7C0FF1B484FF08041016040F2F6
:103690004731C0E9011444F61F61C0E90314846195
:1036A000FFF787F908B1FDF78DFB079407A91148CB
:1036B0000894FEF733FF08B1FDF784FB602000900B
:1036C00040F2E730CDE9010400226946094804943C
:1036D000FFF709F908B1FDF775FB042269460548B3
:1036E000FFF701F908B1FDF76DFB0248FFF784F819
:1036F0000AB010BDF806002010B58AB00024079467
:103700001C2168460894FCF77EFF1F481D49016094
:103710005321C0E9011444F61F61C0E90314846118
:10372000FFF747F908B1FDF74DFB079407A91648C5
:103730000894FEF7F3FE08B1FDF744FB70200090FB
:1037400040F2E730CDE90104002269460E480494B6
:10375000FFF7C9F808B1FDF735FB042269460A48AE
:10376000FFF7C1F808B1FDF72DFB0C2269460648AA
:10377000FFF7B9F808B1FDF725FB0348FFF73CF860
:103780000AB010BD000400404007002010B58AB008
:10379000002407941C2168460894FCF734FF204855
:1037A0001E4901605321C0E9011444F61F61C0E9BC
:1037B00003148461FFF7FDF808B1FDF703FB0794DC
:1037C00007A917480894FEF7A9FE08B1FDF7FAFA11
:1037D0007020009040F2E730CDE9010400226946F4
:1037E0000F480494FFF77FF808B1FDF7EBFA0422C5
:1037F00069460B48FFF777F808B1FDF7E3FA602058
:103800000090082269460648FFF76DF808B1FDF7F9
:10381000D9FA0348FEF7F0FF0AB010BD000C0040D3
:10382000880700200E4810B50C4901604FF4E131C3
:1038300041604FF48051816000214FF4C062C0E9C3
:1038400003120C22C0E90521C161FFF7EDFA00283F
:1038500003D0BDE81040FDF7B5BA10BD00440040EC
:10386000180800200C4810B50A4901604FF4E131F6
:103870004160002181600C22C160C0E904128161B5
:10388000C161FFF7D1FA002803D0BDE81040FDF771
:1038900099BA10BD00480040600800200D4810B5DE
:1038A0000B4901600C49416000214FF40052C0E90E
:1038B0000212D21002610C22C0E90521C161FFF79A
:1038C000B3FA002803D0BDE81040FDF77BBA10BD65
:1038D00000140140A8080020A0860100FEE7FEE7D2
:1038E00010B5854C01282DED048BB0EE428AF0EE28
:1038F000628AB0EE419AF0EE619A09D002281ED198
:1039000008291CD2DFE801F01B8192A3B4C5D6E7D9
:10391000082914D2DFE801F013041626364657684A
:1039200051EC100B08F020FE206751EC190B08F049
:103930001BFEA06351EC180B08F016FE2060BDECD6
:10394000048B10BD51EC100B08F00EFE606751ECBB
:10395000190B08F009FEE06351EC180B08F004FEA7
:103960006060ECE751EC100B08F0FEFDA06751EC35
:10397000190B08F0F9FD206451EC180B08F0F4FD68
:10398000A060DCE751EC100B08F0EEFDE06751ECB5
:10399000190B08F0E9FD606451EC180B08F0E4FD28
:1039A000E060CCE751EC100B08F0DEFDC4F88000BD
:1039B00051EC190B08F0D8FDA06451EC180B08F07D
:1039C000D3FD2061BBE751EC100B08F0CDFDC4F82E
:1039D000840051EC190B08F0C7FDE06451EC180BA2
:1039E00008F0C2FD6061AAE751EC100B08F0BCFDC5
:1039F000C4F8880051EC190B08F0B6FD206551ECB5
:103A0000180B08F0B1FDA06199E751EC100B08F01C
:103A1000ABFDC4F88C0051EC190B08F0A5FD6065F6
:103A200051EC180B08F0A0FDE06188E751EC100B99
:103A300008F09AFDC4F8900051EC190B08F094FDC1
:103A4000A06551EC180B08F08FFD206277E751EC70
:103A5000100B08F089FDC4F8940051EC190B08F024
:103A600083FDE06551EC180B08F07EFD606266E7AF
:103A700051EC100B08F078FDC4F8980051EC190BCC
:103A800008F072FD206651EC180B08F06DFDA06285
:103A900055E751EC100B08F067FDC4F89C0051ECA1
:103AA000190B08F061FD606651EC180B08F05CFD25
:103AB000E06244E751EC100B08F056FDC4F8A0009A
:103AC00051EC190B08F050FDA06651EC180B08F0F2
:103AD0004BFD206333E751EC100B08F045FDC4F8B3
:103AE000A40051EC190B08F03FFDE06651EC180BF7
:103AF00008F03AFD606322E75001002010B55A4CEF
:103B000001282DED048BB0EE428AF0EE628AB0EE11
:103B1000419AF0EE619A09D002282AD1082928D2C8
:103B2000DFE801F0275C66707A848E98082920D23D
:103B3000DFE801F01F040E222C36404A51EC100B36
:103B400008F012FDC4F8180151EC190BA83408E074
:103B500051EC100B08F008FDC4F81C0151EC190BD6
:103B6000AC3408F001FDA06351EC180B08F0FCFC2C
:103B70002060BDEC048B10BD51EC100B08F0F4FC80
:103B8000C4F8200151EC190BB034EAE751EC100BEA
:103B900008F0EAFCC4F8240151EC190BB434E0E756
:103BA00051EC100B08F0E0FCC4F8280151EC190BA3
:103BB000B834D6E751EC100B08F0D6FCC4F82C0151
:103BC00051EC190BBC34CCE751EC100B08F0CCFCD9
:103BD000C4F8300151EC190BC034C2E751EC100BA2
:103BE00008F0C2FCC4F8340151EC190BC434B8E736
:103BF00051EC100B08F0B8FCC4F8380151EC190B6B
:103C0000C834AEE751EC100B08F0AEFCC4F83C0130
:103C100051EC190BCC34A4E751EC100B08F0A4FCC8
:103C2000C4F8400151EC190BD0349AE751EC100B59
:103C300008F09AFCC4F8440151EC190BD43490E715
:103C400051EC100B08F090FCC4F8480151EC190B32
:103C5000D83486E751EC100B08F086FCC4F84C0110
:103C600051EC190BDC347CE7500100200F489FED2C
:103C7000100A80ED0D0A80ED140A80ED130A80ED24
:103C8000120A80ED110A80ED100A80ED0F0A80ED16
:103C90000E0A80ED0C0A80ED0B0A80ED0A0A80ED19
:103CA000090A80ED080A80ED070A704718560020BF
:103CB000000000002DE9F047DFF808842DED0A8BA5
:103CC000404698ED020A90ED00BABDEEC00A10EE33
:103CD000101A90ED010ADFEDFCAADFEDFC9A9FEDD2
:103CE000FC8A9FEDFCAA4FF08D46DFEDFB8AFB4F6F
:103CF0009FEDFB9ADFF8EC93A0F5D27400F5A87560
:103D0000012902D0022932D132E0D4ED3D1A70EE01
:103D10004B0A99ED691AB0EE610AD9ED852A11EEC8
:103D2000200A94ED3E1A20EE0A2AB0EE410A02EE75
:103D3000A00A30EE020A10EE101AB14202DDC5ED03
:103D4000008A08E010EE101AB94202D985ED009AF7
:103D500001E085ED000A42EE291AC4ED3D1A99ED05
:103D6000770A20EE200A00EE291A84ED3E1A8FE031
:103D7000D8ED030AD8ED051A4846B0EE601A01EEF8
:103D8000AA1A70EE41BA99ED5B1AB0EEEB0AB4EEE6
:103D9000C01AF1EE10FA01DBF0EE48BAD4ED3A1A8F
:103DA00090ED072AB4EEC01A52EE2B1A21EE8ACA01
:103DB000F1EE10FA19D294ED390A90ED231A01EEC2
:103DC0002B0A30EE0C0A10EE101AB14202DDB0EEF2
:103DD000680A05E010EE101AB94201D9B0EE490A9E
:103DE00090ED931A11EE00BA01E0B0EE48BA94EDEE
:103DF0003B0A90ED311A11EE0B0A99ED4D1A60EE67
:103E00000ACA94ED3C0A01EE0B0A30EE2C0A10EEC1
:103E1000100AB04202DDC5ED018A08E010EE100A7A
:103E2000B84202D985ED019A01E085ED010A98EDCD
:103E3000040AAD4930EEC00A01F12800FCF7EAFEA1
:103E400094ED0D0AD8ED050A30EE200A85ED020A40
:103E5000D9ED150A94ED390A60EEAB0A00EEA90A15
:103E600084ED390A94ED3A0A0CEE290A84ED3A0AF7
:103E700094ED3B0A0CEEA90A84ED3B0AD9ED3F0A0A
:103E800094ED3C0A60EE8B0A00EEA90A84ED3C0A30
:103E900098ED080ABDEEC00A10EE100A012802D003
:103EA000022836D136E098ED070AD8ED060A94EDDF
:103EB000671AD9ED621A70EE600AB0EE410AD9EDC8
:103EC0007E2A11EEA00AD4ED681A20EE0A2AB0EE7E
:103ED000610A02EEA00A30EE020A10EE101AB14298
:103EE00002DDC5ED038A08E010EE101AB94202D9CE
:103EF00085ED039A01E085ED030A02EE291A84EDAF
:103F0000671A99ED700A20EE200A40EE291AC4EDD6
:103F1000681A95E0D8ED090A98ED0B1A4146B0EE03
:103F2000600A484601EE2A0A98ED071A71EE40BA77
:103F300099ED541AB0EEEB0AB4EEC01AF1EE10FA95
:103F400001DBF0EE48BAD4ED641A90ED002AB4EE2D
:103F5000C01A52EE2B1A21EE8ACAF1EE10FA1BD2C9
:103F600094ED630A90ED1C1A01EE2B0A30EE0C0A58
:103F700010EE102AB24202DDB0EE680A05E010EE43
:103F8000102ABA4201D9B0EE490A91ED06BA90ED75
:103F90008C1A11EE00BA01E0B0EE48BA94ED650A51
:103FA00090ED2A1A11EE0B0A99ED461A60EE0ACA34
:103FB00094ED660A01EE0B0A30EE2C0A10EE100AA0
:103FC000B04202DDC5ED048A08E010EE100AB842E6
:103FD00002D985ED049A01E085ED040A98ED0A0AFC
:103FE00041490E3130EEC00A01F13600FCF712FEF5
:103FF00094ED140AD8ED0B0A30EE200A85ED050A7F
:10400000D9ED0E0A94ED630A60EEAB0A00EEA90A40
:1040100084ED630A94ED640A0CEE290A84ED640AC7
:1040200094ED650A0CEEA90A84ED650AD9ED380A0B
:1040300094ED660A60EE8B0A00EEA90A84ED660A2A
:1040400098ED0E0ABDEEC00A10EE100A012802D04B
:10405000022836D14AE098ED0D0AD8ED0C0AD4EDCD
:10406000611AD9ED7F2A30EE601AD9ED630AB0EEFD
:10407000610A10EE810AD4ED620A20EE0A2AB0EE3F
:10408000600A02EE810A30EE020A10EE101AB14206
:1040900002DDC5ED068A08E010EE101AB94202D919
:1040A00085ED069A01E085ED060A42EE291AC4ED77
:1040B000611A99ED710A20EE010A40EE290AC4ED59
:1040C000620AA8E0BC57002000F8FF456F12833A4F
:1040D000000000000000C84200008046000080C6CA
:1040E000000080C65001002024560020D8ED0F0AA1
:1040F00098ED111A4146B0EE600A484601EE2A0AD0
:1041000098ED0D1A31EE40BA99ED551AB0EECB0A82
:10411000B4EEC01AF1EE10FA01DBB0EE48BAD4EDFD
:104120005E1A90ED012AB4EEC01A52EE0B1A21EE7F
:104130008ACAF1EE10FA1BD294ED5D0A90ED1D1AB9
:1041400001EE0B0A30EE0C0A10EE102AB24202DD2C
:10415000B0EE680A05E010EE102ABA4201D9B0EEBE
:10416000490AD1ED0CBA90ED8D1A51EE00BA01E07A
:10417000F0EE48BA94ED5F0A90ED2B1A11EE2B0A7F
:1041800099ED471A60EE0ACA94ED600A01EE2B0A17
:1041900030EE2C0A10EE100AB04202DDC5ED078A9F
:1041A00008E010EE100AB84202D985ED079A01E046
:1041B00085ED070A98ED100AFF4930EEC00A01F1BB
:1041C0003400FCF727FD94ED130AD8ED110A30EE08
:1041D000200A85ED080AD9ED0F0A94ED5D0A60EE1C
:1041E0008B0A00EEA90A84ED5D0A94ED5E0A0CEEDE
:1041F000290A84ED5E0A94ED5F0A0CEEA90A84EDAB
:104200005F0AD9ED390A94ED600A60EEAB0A00EE60
:10421000A90A84ED600A98ED140ABDEEC00A10EEFA
:10422000100A012802D0022836D136E098ED130A90
:10423000D8ED120AD4ED5B1AD9ED802A30EE601A5F
:10424000D9ED640AB0EE610A10EE810AD4ED5C0A81
:1042500020EE0A2AB0EE600A02EE810A30EE020A6F
:1042600010EE101AB14202DDC5ED098A08E010EE29
:10427000101AB94202D985ED099A01E085ED090AC3
:1042800042EE291AC4ED5B1A99ED720A20EE010A7A
:1042900040EE290AC4ED5C0A95E0D8ED150A98EDC8
:1042A000171A4146B0EE600A484601EE2A0A98ED18
:1042B000131A31EE40BA99ED561AB0EECB0AB4EEAD
:1042C000C01AF1EE10FA01DBB0EE48BAD4ED581A7C
:1042D00090ED022AB4EEC01A52EE0B1A61EE8ACAB1
:1042E000F1EE10FA1BD294ED570A90ED1E1A01EE72
:1042F0000B0A30EE2C0A10EE102AB24202DDB0EEAC
:10430000680A05E010EE102ABA4201D9B0EE490A57
:10431000D1ED12BA90ED8E1A51EE00BA01E0F0EE36
:1043200048BA94ED590A90ED2C1A11EE2B0A99ED2A
:10433000481A20EE0ACA94ED5A0A01EE2B0A30EE12
:104340000C0A10EE100AB04202DDC5ED0A8A08E040
:1043500010EE100AB84202D985ED0A9A01E085ED07
:104360000A0A98ED160A9449891E30EEC00A01F136
:104370003200FCF74FFC94ED120AD8ED170A30EE2C
:10438000200A85ED0B0AD9ED100A94ED570A60EE6C
:104390008B0A00EEA90A84ED570A94ED580A0CEE38
:1043A000A90A84ED580A94ED590A0CEE290A84ED05
:1043B000590AD9ED3A0A94ED5A0A60EEAB0A00EEBA
:1043C000A90A84ED5A0A98ED1A0ABDEEC00A10EE49
:1043D000100A012802D0022836D136E098ED190AD9
:1043E000D8ED180A94ED552A99ED651A30EE600A59
:1043F000F0EE420AD4ED561AD9ED812A51EE000AA8
:1044000020EE8A1AF0EE610A42EE800A70EE810A0E
:1044100010EE901AB14202DDC5ED0C8A08E010EEF4
:10442000901AB94202D985ED0C9A01E0C5ED0C0A4B
:1044300001EE292A84ED552AD9ED730A20EE800A6F
:1044400040EE291AC4ED561A95E0D8ED1B0A98EDF6
:104450001D1A4146B0EE600A484601EE2A0A98ED60
:10446000191A31EE40BA99ED571AB0EECB0AB4EEF4
:10447000C01AF1EE10FA01DBB0EE48BAD4ED521AD0
:1044800090ED032AB4EEC01A52EE0B1A21EE8ACA3E
:10449000F1EE10FA1BD294ED510A90ED1F1A01EEC5
:1044A0000B0A30EE0C0A10EE102AB24202DDB0EE1A
:1044B000680A05E010EE102ABA4201D9B0EE490AA6
:1044C000D1ED18BA90ED8F1A51EE00BA01E0F0EE7E
:1044D00048BA94ED530A90ED2D1A11EE2B0A99ED7E
:1044E000491A60EE0ACA94ED540A01EE2B0A30EE26
:1044F0002C0A10EE100AB04202DDC5ED0D8A08E06C
:1045000010EE100AB84202D985ED0D9A01E085ED52
:104510000D0A98ED1C0A2849091F30EEC00A01F166
:104520003000FCF777FB94ED110AD8ED1D0A30EE50
:10453000200A85ED0E0AD9ED110A94ED510A60EEBC
:104540008B0A00EEA90A84ED510A94ED520A0CEE92
:10455000290A84ED520A94ED530A0CEEA90A84ED5F
:10456000530AD9ED3B0A94ED540A60EEAB0A00EE13
:10457000A90A84ED540A98ED200ABDEEC00A10EE97
:10458000100A012802D002283AD13AE098ED1F0A19
:10459000D8ED1E0AD4ED4F1AD9ED822A30EE601AFA
:1045A000D9ED660AB0EE610A10EE810AD4ED500A28
:1045B00020EE0A2A02E0000030560020B0EE600A29
:1045C00002EE810A30EE020A10EE101AB14202DD4C
:1045D000C5ED0F8A08E010EE101AB94202D985ED38
:1045E0000F9A01E085ED0F0A42EE291AC4ED4F1A29
:1045F00099ED740A20EE010A40EE290AC4ED500A32
:1046000094E0D8ED210A98ED231A4146B0EE600AF5
:10461000484601EE2A0A98ED1F1A31EE40BA99ED8C
:10462000581AB0EECB0AB4EEC01AF1EE10FA01DB64
:10463000B0EE48BAD4ED4C1A90ED042AB4EEC01A8C
:1046400052EE0B1A21EE8ACAF1EE10FA1BD294ED4B
:104650004B0A90ED201A01EE0B0A30EE0C0A10EE18
:10466000102AB24202DDB0EE680A05E010EE102A10
:10467000BA4201D9B0EE490AD1ED1EBA90ED901AB6
:1046800051EE00BA01E0F0EE48BA94ED4D0A90ED1B
:104690002E1A11EE2B0A99ED4A1A60EE0ACA94ED11
:1046A0004E0A01EE2B0A30EE2C0A10EE100AB04230
:1046B00002DDC5ED108A08E010EE100AB84202D9FA
:1046C00085ED109A01E085ED100A98ED220AF8496F
:1046D00030EEC00A01F12E00FCF79CFA94ED100AAE
:1046E000D8ED230A30EE200A85ED110AD9ED120A21
:1046F00094ED4B0A60EE8B0A00EEA90A84ED4B0A9A
:1047000094ED4C0A0CEE290A84ED4C0A94ED4D0A06
:104710000CEEA90A84ED4D0AD9ED3C0A94ED4E0A3F
:1047200060EEAB0A00EEA90A84ED4E0A98ED260A67
:10473000BDEEC00A10EE100A012802D0022836D1C0
:1047400036E098ED250AD8ED240AD4ED491AD9EDC2
:10475000832A30EE601AD9ED670AB0EE610A10EED6
:10476000810A20EE0A2A94ED4A0AF0EE400A42EE4F
:10477000810A70EE820A10EE901AB14202DDC5ED98
:10478000128A08E010EE901AB94202D985ED129A09
:1047900001E0C5ED120A42EE291AC4ED491AD9ED1D
:1047A000750A60EE810A00EEA90A84ED4A0A95E0D6
:1047B000D8ED270A98ED291A4146B0EE600A48461E
:1047C00001EE2A0A98ED251A31EE40BA99ED591AF0
:1047D000B0EECB0AB4EEC01AF1EE10FA01DBB0EE87
:1047E00048BAD4ED461A90ED052AB4EEC01A52EE3E
:1047F0000B1A21EE8ACAF1EE10FA1BD294ED450A8B
:1048000090ED211A01EE0B0A30EE0C0A10EE102A80
:10481000B24202DDB0EE680A05E010EE102ABA429C
:1048200001D9B0EE490AD1ED24BA90ED911A51EEBA
:1048300000BA01E0F0EE48BA94ED470A90ED2F1A65
:1048400011EE2B0A99ED4B1A60EE0ACA94ED480A54
:1048500001EE2B0A30EE2C0A10EE100AB04202DDF7
:10486000C5ED138A08E010EE100AB84202D985EDB2
:10487000139A01E085ED130A98ED280A8C49891EE8
:1048800030EEC00A01F12C00FCF7C4F994ED0F0AD8
:10489000D8ED290A30EE200A85ED140AD9ED130A65
:1048A00094ED450A60EE8B0A00EEA90A84ED450AF4
:1048B00094ED460A0CEE290A84ED460A94ED470A67
:1048C0000CEEA90A84ED470AD9ED3D0A94ED480A99
:1048D00060EEAB0A00EEA90A84ED480A98ED2C0AB6
:1048E000744BBDEEC00A10EE100ADFED730ADFF85C
:1048F000CCC19FED732A012802D0022836D136E0C0
:1049000098ED2B0A98ED2A1AD4ED431AD9ED843A82
:1049100070EE412A99ED681AB0EE610A11EE220A92
:1049200020EE0A3A94ED440AB0EE401A03EEA21AC1
:1049300031EE031A11EE101A994202DDC5ED150A87
:1049400008E011EE101A614502D985ED152A01E043
:1049500085ED151A43EE291AC4ED431AD9ED760AEE
:1049600060EEA20A00EEA90A84ED440A95E098EDF3
:104970002D1AD8ED2F1A4246B0EE410A494601EEF3
:10498000AA0AD8ED2B1A31EEC0BAD9ED5A1AB0EEF8
:10499000CB0AF4EEC01AF1EE10FA01DBB0EE48BA21
:1049A000D4ED402A91ED063AF4EEC01A53EE0B2AEC
:1049B00022EE8ACAF1EE10FA1BD294ED3F0AD1ED35
:1049C000221A01EE8B0A30EE0C0A10EE100A984201
:1049D00002DDB0EE600A05E010EE100A604501D974
:1049E000B0EE420AD2ED2ABAD1ED921A51EE80BA57
:1049F00001E0F0EE48BA94ED410AD1ED301A11EE23
:104A0000AB0AD9ED4C1A60EE0ACA94ED420A01EEE7
:104A1000AB0A30EE2C0A10EE100A984202DDC5ED0A
:104A2000160A08E010EE100A604502D985ED162A34
:104A300001E085ED160A98ED2E0A1D49091F31EE99
:104A4000400A01F12A00FCF7E5F894ED0E0AD8EDD2
:104A50002F0A30EE200A85ED170AD9ED140A94EDDD
:104A60003F0A60EE8B0A00EEA90A84ED3F0A94ED3E
:104A7000400A0CEE290A84ED400A94ED410A0CEE3E
:104A8000A90A84ED410AD9ED3E0A94ED420A60EE8E
:104A9000AB0A00EEA90A84ED420A98ED320ABDEE97
:104AA000C00A10EE100A01280CD0022840D140E0C4
:104AB0002A56002000803B4500803B4500803BC5D6
:104AC00000803BC598ED310AD8ED300AD4ED371A95
:104AD00099ED6A1A70EE600AB0EE610AD9ED862A85
:104AE00011EE200A94ED381A20EE0A2AB0EE410A9F
:104AF00002EEA00A30EE020A10EE101AB14202DDF8
:104B0000C5ED188A08E010EE101AB94202D985EDF9
:104B1000189A01E085ED180A42EE291AC4ED371AF9
:104B200099ED780A20EE200A00EE291A84ED381A51
:104B300094E0D8ED330A98ED351A4146B0EE600A9C
:104B4000484601EE2A0A98ED311A31EE40BA99ED45
:104B50005C1AB0EECB0AB4EEC01AF1EE10FA01DB2B
:104B6000B0EE48BAD4ED341A90ED082AB4EEC01A6B
:104B700052EE0B1A21EE8ACAF1EE10FA1BD294ED16
:104B8000330A90ED241A01EE0B0A30EE0C0A10EEF7
:104B9000102AB24202DDB0EE680A05E010EE102ADB
:104BA000BA4201D9B0EE490AD1ED30BA90ED941A6B
:104BB00051EE00BA01E0F0EE48BA94ED350A90EDFE
:104BC000321A11EE2B0A99ED4E1A60EE0ACA94EDD4
:104BD000360A01EE2B0A30EE2C0A10EE100AB04213
:104BE00002DDC5ED198A08E010EE100AB84202D9BC
:104BF00085ED199A01E085ED190A98ED340AFF490F
:104C000030EEC00A01F12600FCF704F894ED0C0A1E
:104C1000D8ED350A30EE200A85ED1A0AD9ED160ACC
:104C200094ED330A60EE8B0A00EEA90A84ED330A94
:104C300094ED340A0CEE290A84ED340A94ED350A19
:104C40000CEEA90A84ED350AD9ED400A94ED360A36
:104C500060EEAB0A00EEA90A84ED360A98ED380A38
:104C6000BDEEC00A10EE100A012802D0022836D18B
:104C700036E098ED370AD8ED360AD9ED6B1AD9ED42
:104C8000872A30EE600AD4ED310AB0EE601A11EED8
:104C9000801AD4ED321A21EE0A2AB0EE611A02EE21
:104CA000801A31EE021A11EE100AB04202DDC5ED93
:104CB0001B8A08E011EE100AB84202D985ED1B9A52
:104CC00001E085ED1B1A42EE290AC4ED310AD9ED47
:104CD000790A20EE800A40EE291AC4ED321A95E0D6
:104CE000D8ED390A98ED3B1A4146B0EE600A4846C5
:104CF00001EE2A0A98ED371A31EE40BA99ED5D1AA5
:104D0000B0EECB0AB4EEC01AF1EE10FA01DBB0EE51
:104D100048BAD4ED2E1A90ED092AB4EEC01A52EE1C
:104D20000B1A21EE8ACAF1EE10FA1BD294ED2D0A6D
:104D300090ED251A01EE0B0A30EE0C0A10EE102A47
:104D4000B24202DDB0EE680A05E010EE102ABA4267
:104D500001D9B0EE490AD1ED36BA90ED951A51EE6F
:104D600000BA01E0F0EE48BA94ED2F0A90ED331A44
:104D700011EE2B0A99ED4F1A60EE0ACA94ED300A33
:104D800001EE2B0A30EE2C0A10EE100AB04202DDC2
:104D9000C5ED1C8A08E010EE100AB84202D985ED74
:104DA0001C9A01E085ED1C0A98ED3A0A9349891E88
:104DB00030EEC00A01F12400FBF72CFF94ED0B0A42
:104DC000D8ED3B0A30EE200A85ED1D0AD9ED170A11
:104DD00094ED2D0A60EE8B0A00EEA90A84ED2D0AEF
:104DE00094ED2E0A0CEE290A84ED2E0A94ED2F0A7A
:104DF0000CEEA90A84ED2F0AD9ED410A94ED300A90
:104E000060EEAB0A00EEA90A84ED300A98ED3E0A86
:104E1000BDEEC00A10EE100A012802D0022836D1D9
:104E200036E098ED3D0AD8ED3C0AD9ED6C1AD9ED83
:104E3000882A30EE601AD4ED2B0AB0EE600A11EE2B
:104E4000810AD4ED2C1A20EE0A2AB0EE610A02EE95
:104E5000810A30EE020A10EE101AB14202DDC5EDF1
:104E60001E8A08E010EE101AB94202D985ED1E9A8A
:104E700001E085ED1E0A42EE290AC4ED2B0A99EDE8
:104E80007A0A20EE010A40EE291AC4ED2C1A94E0A9
:104E9000D8ED3F0A98ED411A4146B0EE600A484607
:104EA00001EE2A0A98ED3D1A31EE40BA99ED5E1AEC
:104EB000B0EECB0AB4EEC01AF1EE10FA01DBB0EEA0
:104EC00048BAD4ED281A90ED0A2AB4EEC01A52EE70
:104ED0000B1A21EE8ACAF1EE10FA1BD294ED270AC2
:104EE00090ED261A01EE0B0A30EE0C0A10EE102A95
:104EF000B24202DDB0EE680A05E010EE102ABA42B6
:104F000001D9B0EE490AD1ED3CBA90ED961A51EEB6
:104F100000BA01E0F0EE48BA94ED290A90ED341A97
:104F200011EE2B0A99ED501A60EE0ACA94ED2A0A86
:104F300001EE2B0A30EE2C0A10EE100AB04202DD10
:104F4000C5ED1F8A08E010EE100AB84202D985EDBF
:104F50001F9A01E085ED1F0A98ED400A2748A11D20
:104F600030EEC00A1E30FBF755FE94ED0A0AD8ED6C
:104F7000410A30EE200A85ED200AD9ED180A94ED99
:104F8000270A60EE8B0A00EEA90A84ED270A94ED49
:104F9000280A0CEE290A84ED280A94ED290A0CEE61
:104FA000A90A84ED290AD9ED420A94ED2A0A60EE95
:104FB000AB0A00EEA90A84ED2A0A98ED440ABDEE78
:104FC000C00A10EE100A012802D002283AD13AE0B5
:104FD00098ED430AD8ED420A99ED6D1AD9ED892A68
:104FE00030EE602AD4ED250AB0EE600A11EE020A16
:104FF00060EE0A1A94ED260A02E000002256002014
:10500000B0EE401A02EE821A31EE211A11EE101A99
:10501000B14202DDC5ED218A08E011EE101AB94255
:1050200002D985ED219A01E085ED211A41EEA90A08
:10503000C4ED250AD9ED7B0A60EE820A00EEA90ACA
:1050400084ED260A93E0D8ED450A98ED471A4146CB
:10505000B0EE600A484601EE2A0A98ED431A31EE96
:1050600040BA99ED5F1AB0EECB0AB4EEC01AF1EE79
:1050700010FA01DBB0EE48BAD4ED221A90ED0B2AFB
:10508000B4EEC01A52EE0B1A21EE8ACAF1EE10FAF3
:105090001BD294ED210A90ED271A01EE0B0A30EE97
:1050A0000C0A10EE102AB24202DDB0EE680A05E0EA
:1050B00010EE102ABA4201D9B0EE490AD1ED42BA37
:1050C00090ED971A51EE00BA01E0F0EE48BA94ED77
:1050D000230A90ED351A11EE2B0A99ED511A60EE64
:1050E0000ACA94ED240A01EE2B0A30EE2C0A10EEC7
:1050F000100AB04202DDC5ED228A08E010EE100A67
:10510000B84202D985ED229A01E085ED220A98ED98
:10511000460A211DED4830EEC00AFBF77BFD94EDF9
:10512000090AD8ED470A30EE200A85ED230AD9EDA9
:10513000190A94ED210A60EE8B0A00EEA90A84EDAB
:10514000210A94ED220A0CEE290A84ED220A94ED3C
:10515000230A0CEEA90A84ED230AD9ED430A94ED43
:10516000240A60EEAB0A00EEA90A84ED240A98ED49
:105170004A0ABDEEC00A10EE100A012802D0022829
:1051800036D136E098ED490AD8ED480AD9ED6E1AC5
:10519000D9ED8A2A30EE601AD4ED1F0AB0EE600A0B
:1051A00011EE810AD4ED201A20EE0A2AB0EE610A2F
:1051B00002EE810A30EE020A10EE101AB14202DD50
:1051C000C5ED248A08E010EE101AB94202D985ED27
:1051D000249A01E085ED240A42EE290AC4ED1F0A53
:1051E00099ED7C0A20EE010A40EE291AC4ED201A3E
:1051F00094E0D8ED4B0A98ED4D1A4146B0EE600AA6
:10520000484601EE2A0A98ED491A31EE40BA99ED66
:10521000601AB0EECB0AB4EEC01AF1EE10FA01DB60
:10522000B0EE48BAD4ED1C1A90ED0C2AB4EEC01AB8
:1052300052EE0B1A21EE8ACAF1EE10FA1BD294ED4F
:105240001B0A90ED281A01EE0B0A30EE0C0A10EE44
:10525000102AB24202DDB0EE680A05E010EE102A14
:10526000BA4201D9B0EE490AD1ED48BA90ED981A88
:1052700051EE00BA01E0F0EE48BA94ED1D0A90ED4F
:10528000361A11EE2B0A99ED521A60EE0ACA94ED05
:105290001E0A01EE2B0A30EE2C0A10EE100AB04264
:1052A00002DDC5ED258A08E010EE100AB84202D9E9
:1052B00085ED259A01E085ED250A98ED4C0A834895
:1052C000A11C30EEC00A001FFBF7A4FC94ED080AF5
:1052D000D8ED4D0A30EE200A85ED260AD9ED1A0ADE
:1052E00094ED1B0A60EE8B0A00EEA90A84ED1B0AFE
:1052F00094ED1C0A0CEE290A84ED1C0A94ED1D0A9B
:105300000CEEA90A84ED1D0AD9ED440A94ED1E0A9B
:1053100060EEAB0A00EEA90A84ED1E0A98ED500A71
:10532000BDEEC00A10EE100A012835D0022869D15E
:10533000D8ED510A98ED531A4846B0EE600A01EED6
:105340002A0A98ED4F1A71EE40AA99ED611AB0EE53
:10535000EA0AB4EEC01AF1EE10FA01DBF0EE48AA48
:10536000D4ED161A90ED0D2AB4EEC01A52EE2A1A98
:1053700021EE8ABAF1EE10FA54D294ED150A90EDAE
:10538000291A01EE2A0A30EE0B0A10EE101AB14269
:105390003CDDB0EE680A3FE098ED4F0AD8ED4E0ACA
:1053A00094ED191AD9ED6F1A70EE600AB0EE410A49
:1053B000D9ED8B2A11EEA00AD4ED1A1A20EE0A2A92
:1053C000B0EE610A02EEA00A30EE020A10EE101AE8
:1053D000B14202DDC5ED278A08E010EE101AB9428D
:1053E00002D985ED279A01E085ED270A02EE291AF8
:1053F00084ED191A99ED7D0A20EE200A40EE291A53
:10540000C4ED1A1ABDEC0A8BBDE8F08710EE101A35
:10541000B94201D9B0EE490A98ED4E8A90ED991A39
:1054200011EE008A94ED170A90ED371A11EE080A72
:1054300099ED531A20EE0AAA94ED180A01EE080A13
:1054400030EE0A0A10EE100AB04202DDC5ED288ADD
:1054500008E010EE100AB84202D985ED289A01E062
:1054600085ED280A98ED520A1849243930EEC00A11
:1054700001F11C00FBF7CEFB94ED070AD8ED530AAF
:1054800030EE200A85ED290AD9ED1B0A94ED150AA4
:1054900060EEAA0A00EEA90A84ED150A94ED160A38
:1054A0000BEE290A84ED160A94ED170A0AEE290A72
:1054B00084ED170AD9ED450A94ED180A60EE880AC2
:1054C00000EEA90A84ED180A9CE700003C56002073
:1054D00010B5614C01282DED048BB0EE418AF0EE41
:1054E000618AB0EE409AF0EE609A09D002282CD181
:1054F00008292AD2DFE801F029636E79848F9AA502
:10550000082922D2DFE801F021040F242F3A455068
:1055100051EC120B07F028F8C4F8880151EC180B75
:1055200004F5C47409E051EC120B07F01DF8C4F83F
:105530008C0151EC180B04F5C67407F015F8A06344
:1055400051EC190B07F010F82067BDEC048B10BD6F
:1055500051EC120B07F008F8C4F8900151EC180B4D
:1055600004F5C874E9E751EC120B06F0FDFFC4F82E
:10557000940151EC180B04F5CA74DEE751EC120BE0
:1055800006F0F2FFC4F8980151EC180B04F5CC7446
:10559000D3E751EC120B06F0E7FFC4F89C0151EC85
:1055A000180B04F5CE74C8E751EC120B06F0DCFFC3
:1055B000C4F8A00151EC180B04F5D074BDE751EC10
:1055C000120B06F0D1FFC4F8A40151EC180B04F53E
:1055D000D274B2E751EC120B06F0C6FFC4F8A80172
:1055E00051EC180B04F5D474A7E751EC120B06F03C
:1055F000BBFFC4F8AC0151EC180B04F5D6749CE762
:1056000051EC120B06F0B0FFC4F8B00151EC180BCE
:1056100004F5D87491E751EC120B06F0A5FFC4F81D
:10562000B40151EC180B04F5DA7486E751EC120B57
:1056300006F09AFFC4F8B80151EC180B04F5DC74BD
:105640007BE751EC120B06F08FFFC4F8BC0151EC64
:10565000180B04F5DE7470E7500100202DE9F047C7
:105660002DED0C8B9FEDFABB9FEDFB9B9FEDFCCBD3
:1056700040F28A299FEDFCDB9FEDFD8ADFEDFD8A7C
:10568000FD4DFE4F0026FE4C608AA082208A60827B
:10569000B7F90000B4F90010401A07F044FA41ECE1
:1056A000100BB0EE491AF0EE691A01F0C5FBB7F91C
:1056B0000200B4F90210B0EE40AAF0EE60AA401A5F
:1056C00007F031FA41EC100BB0EE491AF0EE691A0E
:1056D00001F0B2FBB0EE401AF0EE601A53EC1A2B58
:1056E00051EC110B06F072FF41EC100B02F030FA96
:1056F00051EC100B07F0BAF92082B7F90000B4F9A9
:105700000010401A07F00FFA41EC1A0BB7F902002B
:10571000B4F90210401A07F006FA41EC100BB0EE93
:105720004A1AF0EE6A1A01F017FA9FEDD61B51ECF7
:10573000100B53EC112B07F05DFA9FEDD41B53ECCB
:10574000112B06F0FFFF07F091F9F880B4F9100073
:1057500007F0E9F941EC100B01F062FB95ED081B35
:1057600051EC100B53EC112B07F042FB13D8B4F99A
:10577000100007F0D8F941EC100B01F051FB53EC8D
:105780001C2B51EC100B07F0F9F904D285ED029BAC
:10579000A4F810902EE0B4F9100007F0C4F941EC21
:1057A000100B01F03DFB53EC1C2B51EC100B07F0E0
:1057B0001FFB0ED8B4F9100007F0B5F941EC100B3F
:1057C00001F02EFB53EC1D2B51EC100B07F0D6F91A
:1057D0000ED3B4F9100007F0A6F941EC100B01F05C
:1057E0001FFB53EC1D2B51EC100B07F001FB01D8F4
:1057F00085ED02BBB4F9100007F095F941EC100BF0
:1058000001F00EFB95ED0A1B51EC100B53EC112B24
:1058100007F0EEFA06D295ED0A0B51EC100B07F0EB
:1058200025F92082F888A188B846401A00B2E081A4
:1058300007F079F941EC100B01F0F2FA9FED951B9E
:1058400051EC100B53EC112B07F098F900D2E681C4
:10585000B4F9100007F067F941EC100B01F0E0FA21
:1058600095ED081B51EC100B53EC112B07F086F94A
:1058700004D201202860E6822683BFE02E60B4F9BE
:105880000E0000EE100AB8EEC00A60EE080A80EEC4
:10589000A80A10EE100A07F0A3FC41EC100B01F06F
:1058A0005BFAB4F91070B4F91200B0EE40AAF0EE51
:1058B00060AA381A07F037F995ED061B53EC112B47
:1058C00007F098F941EC190B384607F02CF953EC26
:1058D000192B06F07BFE53EC1A2B07F08BF995ED94
:1058E000021B53EC112B07F085F907F0BFF8E0829B
:1058F000B4F90E0000EE100AB8EEC00A60EE080A15
:1059000080EEA80A10EE100A07F06AFC41EC100BBA
:1059100002F0BAF8B4F91070B4F91200B0EE40AA6F
:10592000F0EE60AA381A07F0FEF895ED061B53EC6E
:10593000112B07F05FF941EC190B384607F0F3F82B
:1059400053EC192B06F042FE53EC1A2B07F052F9D8
:1059500095ED021B53EC112B07F04CF99FED4F1BFB
:1059600053EC112B07F00AF90FD2B4F9020041F6FB
:105970006411884209DDB4F90000B0F5FA6F04DA69
:105980004849884201DD218338E0B4F90E0000EE79
:10599000100AB8EEC00A60EE080A80EEA80A10EEFF
:1059A000100A07F01DFC41EC100B02F06DF8B4F981
:1059B0001070B4F91200B0EE408AF0EE608A381A26
:1059C00007F0B1F895ED061B53EC112B07F012F917
:1059D00041EC190B384607F0A6F853EC192B06F0EA
:1059E000F5FD53EC182B07F005F995ED021B53EC70
:1059F000112B07F0FFF807F039F82083B8F90420DD
:105A0000B4F904004146131AB52B02DDA2F5B472B5
:105A10008A80B1F90420131A13F1B50F02DA02F5E6
:105A2000B4728A80B1F904204FF4B47392FBF3F797
:105A300003FB1727A8F8047007F075F841EC180B62
:105A4000384607F070F853EC182B07F0DFFA2BE01C
:105A500000000000000018400000000000000040AE
:105A60000000000000C062400000000000407F40D5
:105A7000DB0F494000003443B80300202800002019
:105A8000F604002000000000008066400000006076
:105A9000FB210940000000000000F03F0000000072
:105AA00000409FC030F8FFFF41EC100B01F0B8F947
:105AB0009FED2C1B51EC100B53EC112B07F098F9B8
:105AC00010D2B8F90400B4F90410401A07F02BF80A
:105AD00095ED041B53EC112B07F08CF806F0C6FF74
